:020000040000fa
:080000000001040000000000f3
:020000040000fa
:1000080090010000900100009001000090010000a4
:100018009001000090010000900100009001000094
:10002800900100009001000090010000f4720000af
:100038009001000090010000900100009001000074
:1000480090010000a8660000da6600009001000038
:100058009001000090010000900100009001000054
:100068009001000090010000900100009001000044
:100078009001000090010000900100009001000034
:10008800186d00007c6d00009001000090010000d8
:100098009001000090010000900100009001000014
:1000a8009001000090010000900100009001000004
:1000b80090010000900100009001000090010000f4
:1000c80090010000900100009001000090010000e4
:1000d80090010000900100009001000090010000d4
:1000e80090010000900100009001000090010000c4
:0800f8009001000090010000de
:020000040000fa
:1001080090010000900100009001000090010000a3
:100118009001000090010000900100009001000093
:10012800900100009001000090010000f4720000ae
:100138009001000090010000900100009001000073
:1001480090010000a8660000da6600009001000037
:100158009001000090010000900100009001000053
:100168009001000090010000900100009001000043
:100178009001000090010000900100009001000033
:10018800186d00007c6d00009001000090010000d7
:100198009001000090010000900100009001000013
:1001a8009001000090010000900100009001000003
:1001b80090010000900100009001000090010000f3
:1001c80090010000900100009001000090010000e3
:1001d80090010000900100009001000090010000d3
:1001e80090010000900100009001000090010000c3
:0801f8009001000090010000dd
:020000040000fa
:10020000cfbe20000eff20000e018800000000007d
:100210000c000700604c27000100200011000700bf
:10022000000020000000e000020032000000020098
:10023000000000004c720200000000000040da00e4
:100240000000fe004440a900000020000000e00083
:100250000300320000002000a00188004440a800f4
:100260000000060091018800800078000000eb008b
:1002700015003700e280400032a0b4009101ba00be
:10028000e280400032a0b4009102ba00e280400057
:1002900032a0b4000002eb00472bde00f507b200ed
:1002a000602ce10004003a000059eb008301e900f2
:1002b000fdff3e00040037006128e100010032002c
:1002c0000082eb00040007001101ba000200e00008
:1002d000e8ff3a00000006003159ba008301e90046
:1002e0000c0032002159ba008301e90008003200f5
:1002f0000400e00003003a00e280400032a0b400b5
:10030000f5ff370011d9ba008301e900faff3a007e
:100310008100e800e180400032a0b4000000060047
:100320000040da000000fe001600200001f0a300eb
:1003300004003900f2ff2f000192b9000010b9004b
:10034000810042004f89de00cf89de00e4062300f1
:10035000f5452100861f7800810178000403b8006c
:100360000500b80087034000608348000418b80007
:1003700087034000068348000518b80006034000c4
:10038000e08148000410b800060340008381480063
:100390000510b80083014000830140008602780008
:1003a0004f037800040022008480430060814a00eb
:1003b000e0814900ce08de004212dd0004807000ba
:1003c0004e11de00421add00840071000100a7001a
:1003d0000603ea0000f0a7000603ea0000f0a70009
:1003e00060001000d11725000100e1002f0031004e
:1003f000814826000100b8004d00de00c308dd0082
:1004000081007000c01b20000008e10003003100e3
:10041000f0ff2f000030b9000000060002002000ad
:10042000130020000108b8008103780004002800b0
:100430000122b80005015100e08159000708b80009
:10044000545525000122b800c3aade000501410071
:10045000e08149000708b80034d822000122b80022
:10046000c7aade0005015100e08159000708b80065
:10047000040d20000122b800c7aade0005014100da
:10048000e08149000708b800240020000122b800dc
:10049000c7aade0005015100e081590003b2b9008e
:1004a0000230b9008100420000000600010028006f
:1004b00000805000814826000100b8004d00de0099
:1004c000c308dd0081007000810378000109b800d5
:1004d0000308b80050552500000ab800c1aade0084
:1004e000858353000308b80040442400000ab80084
:1004f000c5aade00858343000308b8000068200019
:10050000000ab800c7aade00858353000730b9008f
:1005100000000600889fbe008a9fbe008c9fbe0020
:10052000cf8bde004f9bde000204b8000306b8004c
:100530008904460060854e000606b8000a0546009c
:10054000e0854e000606b8008b054600020eb80096
:10055000890446000a854e00e0854d00030eb80070
:100560000a0546008b854e00060eb8008b05460036
:10057000023eb8000a0546008b854e00033eb800d7
:100580008b054600023eb8008b0546000b00e000dc
:1005900002003a000af0a300150039000af0a60094
:1005a00020003700e18545000b00e0001d003a0007
:1005b00005f0a600080037000480440085004d00c7
:1005c00001f0a600230037004f06be004f05be0015
:1005d0004f04be00000006000480440085004d006a
:1005e0004f06be004f05be004f04be0000000600cf
:1005f00005f0a700f8ff37000480440085004d0097
:10060000e0854d000b00e00006003a0001f0a70075
:10061000040037004f06be004f05be004f04be0069
:10062000000006000bf0a7000a003700f0ff2f00c3
:10063000f1ff27004f06be004f05be004f04be006d
:10064000000006004f06be004f05be004f04be006e
:100650000000060000002000010028004f06be0038
:100660004f05be004f04be00000006000000e00081
:1006700006003a00020028000110e10003003a00e1
:100680008180ea000080ea0000000600f2ff2f00ef
:100690000192b9000010b90081004200000006007c
:1006a0000002eb0001f0a30003003900f0ff2f006f
:1006b000f1ff2f00000006000490e700050037005e
:1006c0000498e700030037000000eb001100200051
:1006d000000006000480e700060037001500200037
:1006e0000588e700030037000000eb001100200040
:1006f000000006000002eb000480e7000500370060
:100700000488e700030037000000eb008000eb00e6
:100710000000060003f0a600310037000100e000f1
:10072000090032006108e10003003a0005002800da
:100730000500e10004003900829fbe008407070025
:100740004f01be001a0037000100e0000b003a0024
:1007500005d82e000500e10008003100cf08dd00bb
:10076000c102de00858070004f00dd00829fbe0068
:100770000b0607004f01be000d003700ce08dd005c
:10078000c202de00858070004e00dd006100400086
:10079000e0804800829fbe00010607004f01be00b6
:1007a0004100de00cf0add0005007000c108de0058
:1007b0000200e00006003a00050028000328e100de
:1007c00003003a008381ea000281ea000400370056
:1007d000f6ff2f0003b2b9000231b90083014200d5
:1007e0000002eb000490e700030037001500200032
:1007f0000518e70000000600889fbe008a9fbe0023
:100800008c9fbe00030678008001eb00809fbe0035
:10081000b60907004f01be00809fbe000300e00044
:1008200048033200240020000498e6000303370048
:100830000300e00003003200044c2d000410e1002e
:10084000fe023100a405200084874700e401200057
:100850008483570004f02f00f5ff2f00f6072000d7
:10086000ab0020008413780085137800861378008d
:100870008b05e9000b00e000faff3c008f037800d5
:1008800082137800831378000002eb008413780051
:10089000e4874700829fbe00020078008300780052
:1008a0004f89de000004b8000102b800890442004c
:1008b00060854a000202b8000a054200e0854a004d
:1008c0008b054200000ab800890442000a854a00ec
:1008d000e0854d00010ab8000a0542008b854a00f8
:1008e000020ab8008b0542008b0542000012b800d6
:1008f0000a0542008b854a008b054200040820004f
:1009000004044400e0844c0060054d00e0854d0087
:100910004844de00484add0004007400c84cde0094
:100920004852dd00848074004855de00485add00de
:100930000401750080137800811378008213780019
:10094000cf91de000004b8000102b8008904420023
:1009500060854a000202b8000a054200e0854a00ac
:100960008b054200000ab800890442000a854a004b
:10097000e0854d00010ab8000a0542008b854a0057
:10098000020ab8008b0542008b0542000012b80035
:100990000a0542008b854a008b05420004082000ae
:1009a0008484440060054d00e0854d00c84cde00a5
:1009b0004852dd00048074004855de00485add00ce
:1009c0008400750048d9de00801378008113780018
:1009d00082137800cf91de000004b8000102b80055
:1009e0008904420060854a000202b8000a054200fc
:1009f000e0854a008b054200000ab80089044200e5
:100a00000a854a00e0854d00010ab8000a05420047
:100a10008b854a00020ab8008b0542008b05420014
:100a20000012b8000a0542008b854a008b0542007f
:100a3000040820008484440060054d00e0854d00da
:100a4000c84cde004852dd00048074004855de00ca
:100a5000485add008400750048d9de008013780014
:100a60008113780082137800cf91de000004b80073
:100a70000102b8008904420060854a000202b80001
:100a80000a054200e0854a008b054200000ab800d2
:100a9000890442000a854a00e0854d00010ab80039
:100aa0000a0542008b854a00020ab8008b05420005
:100ab0008b0542000012b8000a0542008b854a00ef
:100ac0008b054200040820008484440060054d002a
:100ad000e0854d00c84cde004852dd000480740003
:100ae0004855de00485add008400750048d9de0014
:100af0008013780081137800821378004f02be00c3
:100b0000e48757002600200006a8e600e70137002a
:100b10000500e00003003200a62126000620e100c7
:100b2000e2013100e4874700849fbe00cf91de00e0
:100b30000004b8000102b8008904420060854a0040
:100b40000202b8000a054200e0854a008b05420017
:100b5000000ab800890442000a854a00e0854d0079
:100b6000010ab8000a0542008b854a00020ab80053
:100b70008b0542008b0542000012b8000a054200b6
:100b80008b854a008b0542000408200084844400c1
:100b900060054d00e0854d00c84cde004852dd0088
:100ba000048074004855de00485add00840075005a
:100bb00048d9de0080137800811378008213780012
:100bc0004f02be00e48757002600200006a8e6007a
:100bd000b60137000500e0000300320096d2220083
:100be0000620e100b1013100e4874700849fbe0088
:100bf000cf91de000004b8000102b8008904420071
:100c000060854a000202b8000a054200e0854a00f9
:100c10008b054200000ab800890442000a854a0098
:100c2000e0854d00010ab8000a0542008b854a00a4
:100c3000020ab8008b0542008b0542000012b80082
:100c40000a0542008b854a008b05420004082000fb
:100c50008484440060054d00e0854d00c84cde00f2
:100c60004852dd00048074004855de00485add001b
:100c70008400750048d9de00801378008113780065
:100c8000821378004f02be00e48757002600200040
:100c900006a8e600850137000500e00003003200e9
:100ca000865a21000620e10080013100e4874700d8
:100cb000849fbe00cf91de000004b8000102b8009e
:100cc0008904420060854a000202b8000a05420019
:100cd000e0854a008b054200000ab8008904420002
:100ce0000a854a00e0854d00010ab8000a05420065
:100cf0008b854a00020ab8008b0542008b05420032
:100d00000012b8000a0542008b854a008b0542009c
:100d1000040820008484440060054d00e0854d00f7
:100d2000c84cde004852dd00048074004855de00e7
:100d3000485add008400750048d9de008013780031
:100d400081137800821378004f02be00e4875700b9
:100d50002600200006a8e600540137000500e00048
:100d600003003200d6a920000620e1004f01310027
:100d7000e4874700849fbe00cf91de000004b800e6
:100d80000102b8008904420060854a000202b800ee
:100d90000a054200e0854a008b054200000ab800bf
:100da000890442000a854a00e0854d00010ab80026
:100db0000a0542008b854a00020ab8008b054200f2
:100dc0008b0542000012b8000a0542008b854a00dc
:100dd0008b054200040820008484440060054d0017
:100de000e0854d00c84cde004852dd0004807400f0
:100df0004855de00485add008400750048d9de0001
:100e00008013780081137800821378004f02be00af
:100e1000e48757002600200006a8e60023013700db
:100e20000500e000030032001654200006a0e60092
:100e30001e013700e4874700849fbe00cf91de008b
:100e40000004b8000102b8008904420060854a002d
:100e50000202b8000a054200e0854a008b05420004
:100e6000000ab800890442000a854a00e0854d0066
:100e7000010ab8000a0542008b854a00020ab80040
:100e80008b0542008b0542000012b8000a054200a3
:100e90008b854a008b0542000408200084844400ae
:100ea00060054d00e0854d00c84cde004852dd0075
:100eb000048074004855de00485add008400750047
:100ec00048d9de00801378008113780082137800ff
:100ed0004f02be00e48757002600200006a8e60067
:100ee000f20037000500e00003003200d6292000a0
:100ef0000620e100ed003100e4874700849fbe003a
:100f0000cf91de000004b8000102b800890442005d
:100f100060854a000202b8000a054200e0854a00e6
:100f20008b054200000ab800890442000a854a0085
:100f3000e0854d00010ab8000a0542008b854a0091
:100f4000020ab8008b0542008b0542000012b8006f
:100f50000a0542008b854a008b05420004082000e8
:100f60008484440060054d00e0854d00c84cde00df
:100f70004852dd00048074004855de00485add0008
:100f80008400750048d9de00801378008113780052
:100f9000821378004f02be00e4875700260020002d
:100fa00006a8e600c10037000500e000030032009b
:100fb000e61420000620e100bc003100e487470071
:100fc000849fbe00cf91de000004b8000102b8008b
:100fd0008904420060854a000202b8000a05420006
:100fe000e0854a008b054200000ab80089044200ef
:100ff0000a854a00e0854d00010ab8000a05420052
:101000008b854a00020ab8008b0542008b0542001e
:101010000012b8000a0542008b854a008b05420089
:10102000040820008484440060054d00e0854d00e4
:10103000c84cde004852dd00048074004855de00d4
:10104000485add008400750048d9de00801378001e
:1010500081137800821378004f02be00e4875700a6
:101060002600200006a8e600900037000500e000fa
:1010700003003200760a20000620e1008b003100d8
:10108000e4874700849fbe00cf91de000004b800d3
:101090000102b8008904420060854a000202b800db
:1010a0000a054200e0854a008b054200000ab800ac
:1010b000890442000a854a00e0854d00010ab80013
:1010c0000a0542008b854a00020ab8008b054200df
:1010d0008b0542000012b8000a0542008b854a00c9
:1010e0008b054200040820008484440060054d0004
:1010f000e0854d00c84cde004852dd0004807400dd
:101100004855de00485add008400750048d9de00ed
:101110008013780081137800821378004f02be009c
:10112000e48757002600200006a8e6005f0037008d
:101130000500e00003003200460520000620e10023
:101140005a003100e4874700849fbe00cf91de0043
:101150000004b8000102b8008904420060854a001a
:101160000202b8000a054200e0854a008b054200f1
:10117000000ab800890442000a854a00e0854d0053
:10118000010ab8000a0542008b854a00020ab8002d
:101190008b0542008b0542000012b8000a05420090
:1011a0008b854a008b05420004082000848444009b
:1011b00060054d00e0854d00c84cde004852dd0062
:1011c000048074004855de00485add008400750034
:1011d00048d9de00801378008113780082137800ec
:1011e0004f02be00e48757002600200006a8e60054
:1011f0002e0037000500e00003003200a6022000a8
:101200000620e10029003100e4874700849fbe00ea
:10121000cf91de000004b8000102b800890442004a
:1012200060854a000202b8000a054200e0854a00d3
:101230008b054200000ab800890442000a854a0072
:10124000e0854d00010ab8000a0542008b854a007e
:10125000020ab8008b0542008b0542000012b8005c
:101260000a0542008b854a008b05420004082000d5
:101270008484440060054d00e0854d00c84cde00cc
:101280004852dd00048074004855de00485add00f5
:101290008400750048d9de0080137800811378003f
:1012a000821378004f02be00e48757008f03780056
:1012b000e683530007037800eb0020002701780045
:1012c000a701780027027800c814de00c81add00e4
:1012d00005807400481dde00c822dd008500750011
:1012e00048a1de0000137800011378000213780093
:1012f0008b05e9000b00e000f0ff3c008f03780055
:1013000044052000848553000400200015002000bf
:101310000003eb008003eb00ea002000e4874700b5
:101320008e1f7800fe002000e6854500100020009a
:101330000a00dd000c00e10038003c000006560009
:10134000e88747008c9fbe00e681550023007800a7
:10135000a3007800230178008a9fbe00cf91de00b1
:101360000404b8000506b8008904460060854e00f4
:101370000606b8000a054600e0854e000706b800dc
:101380008b054600040eb800890446000a854e000d
:10139000e0854d00050eb8000a0546008b854e001d
:1013a000060eb8008b0546000416b8000a05460074
:1013b0008b854e000516b8008b0546000416b80054
:1013c0008b0546000c0028000c02440060824c0093
:1013d000e0024d0060834d00cfb3de004f05be003c
:1013e0004f06be00e88757000700e00004003a00ff
:1013f0000600e00002003a0005f0a30007003900f3
:10140000f4ff2f00f5ff27000003eb008003eb0043
:101410004f077800e4875700b00237000000000053
:10142000610555000e07e9000e00e000beff3c001c
:101430004f077800e4875700a802370002007800c1
:10144000830078005801200008e0e6004c012000ed
:101450006104560004002000150020000003eb008a
:101460008003eb000c00e0009e023200e48747009e
:101470008e1f78000807e8004f89de000404b800da
:101480000506b8008904460060854e000606b800cf
:101490000a054600e0854e000706b8008b054600a9
:1014a000040eb800890446000a854e00e0854d0010
:1014b000050eb8000a0546008b854e00060eb800e2
:1014c0008b0546000416b8000a0546008b854e00c1
:1014d0000516b8008b0546000416b8008b054600bb
:1014e0000c0028000c02440060824c00e0024d0019
:1014f00060834d00cfb3de000700e00004003a0037
:101500000600e00002003a0005f0a30007003900e1
:10151000f4ff2f00f5ff27000003eb008003eb0032
:101520004f077800e48757006e0237000e07e90086
:101530000e00e000d0ff3c004f077800e487570022
:1015400068023700a4052000848747008f037800d5
:1015500082137800831378000002eb008413780074
:1015600002007800830078004f89de000004b80094
:101570000102b8008904420060854a000202b800f6
:101580000a054200e0854a008b054200000ab800c7
:10159000890442000a854a00e0854d00010ab8002e
:1015a0000a0542008b854a00020ab8008b054200fa
:1015b0008b0542000012b8000a0542008b854a00e4
:1015c0008b05420061044400e0844c0060054d003e
:1015d000e0854d004140de004f4add000400700010
:1015e000c148de004f52dd00848070004151de00b2
:1015f0004f5add00040171008013780081137800d8
:1016000082137800cf91de000004b8000102b80018
:101610008904420060854a000202b8000a054200bf
:10162000e0854a008b054200000ab80089044200a8
:101630000a854a00e0854d00010ab8000a0542000b
:101640008b854a00020ab8008b0542008b054200d8
:101650000012b8000a0542008b854a008b05420043
:101660000400280084844c0060054d00e0854d0096
:101670004f48de004152dd0004007000cf50de0014
:10168000415add00848070004fd9de00801378005d
:101690008113780082137800cf91de000004b80037
:1016a0000102b8008904420060854a000202b800c5
:1016b0000a054200e0854a008b054200000ab80096
:1016c000890442000a854a00e0854d00010ab800fd
:1016d0000a0542008b854a00020ab8008b054200c9
:1016e0008b0542000012b8000a0542008b854a00b3
:1016f0008b0542000400280084844c0060054d00e6
:10170000e0854d004f48de004152dd0004007000ce
:10171000cf50de00415add00848070004fd9de00da
:10172000801378008113780082137800cf91de0057
:101730000004b8000102b8008904420060854a0034
:101740000202b8000a054200e0854a008b0542000b
:10175000000ab800890442000a854a00e0854d006d
:10176000010ab8000a0542008b854a00020ab80047
:101770008b0542008b0542000012b8000a054200aa
:101780008b854a008b0542000400280084844c00ad
:1017900060054d00e0854d004f48de004152dd0000
:1017a00004007000cf50de00415add0084807000dc
:1017b0004fd9de00801378008113780082137800ff
:1017c000cf91de000004b8000102b8008904420095
:1017d00060854a000202b8000a054200e0854a001e
:1017e0008b054200000ab800890442000a854a00bd
:1017f000e0854d00010ab8000a0542008b854a00c9
:10180000020ab8008b0542008b0542000012b800a6
:101810000a0542008b854a008b054200040028001f
:1018200084844c0060054d00e0854d004f48de008b
:101830004152dd0004007000cf50de00415add004f
:10184000848070004fd9de00801378008113780007
:1018500082137800cf91de000004b8000102b800c6
:101860008904420060854a000202b8000a0542006d
:10187000e0854a008b054200000ab8008904420056
:101880000a854a00e0854d00010ab8000a054200b9
:101890008b854a00020ab8008b0542008b05420086
:1018a0000012b8000a0542008b854a008b054200f1
:1018b0000400280084844c0060054d00e0854d0044
:1018c0004f48de004152dd0004007000cf50de00c2
:1018d000415add00848070004fd9de00801378000b
:1018e0008113780082137800cf91de000004b800e5
:1018f0000102b8008904420060854a000202b80073
:101900000a054200e0854a008b054200000ab80043
:10191000890442000a854a00e0854d00010ab800aa
:101920000a0542008b854a00020ab8008b05420076
:101930008b0542000012b8000a0542008b854a0060
:101940008b0542000400280084844c0060054d0093
:10195000e0854d004f48de004152dd00040070007c
:10196000cf50de00415add00848070004fd9de0088
:10197000801378008113780082137800cf91de0005
:101980000004b8000102b8008904420060854a00e2
:101990000202b8000a054200e0854a008b054200b9
:1019a000000ab800890442000a854a00e0854d001b
:1019b000010ab8000a0542008b854a00020ab800f5
:1019c0008b0542008b0542000012b8000a05420058
:1019d0008b854a008b0542000400280084844c005b
:1019e00060054d00e0854d004f48de004152dd00ae
:1019f00004007000cf50de00415add00848070008a
:101a00004fd9de00801378008113780082137800ac
:101a1000cf91de000004b8000102b8008904420042
:101a200060854a000202b8000a054200e0854a00cb
:101a30008b054200000ab800890442000a854a006a
:101a4000e0854d00010ab8000a0542008b854a0076
:101a5000020ab8008b0542008b0542000012b80054
:101a60000a0542008b854a008b05420004002800cd
:101a700084844c0060054d00e0854d004f48de0039
:101a80004152dd0004007000cf50de00415add00fd
:101a9000848070004fd9de008013780081137800b5
:101aa00082137800cf91de000004b8000102b80074
:101ab0008904420060854a000202b8000a0542001b
:101ac000e0854a008b054200000ab8008904420004
:101ad0000a854a00e0854d00010ab8000a05420067
:101ae0008b854a00020ab8008b0542008b05420034
:101af0000012b8000a0542008b854a008b0542009f
:101b00000400280084844c0060054d00e0854d00f1
:101b10004f48de004152dd0004007000cf50de006f
:101b2000415add00848070004fd9de0080137800b8
:101b30008113780082137800cf91de000004b80092
:101b40000102b8008904420060854a000202b80020
:101b50000a054200e0854a008b054200000ab800f1
:101b6000890442000a854a00e0854d00010ab80058
:101b70000a0542008b854a00020ab8008b05420024
:101b80008b0542000012b8000a0542008b854a000e
:101b90008b0542000400280084844c0060054d0041
:101ba000e0854d004f48de004152dd00040070002a
:101bb000cf50de00415add00848070004fd9de0036
:101bc000801378008113780082137800cf91de00b3
:101bd0000004b8000102b8008904420060854a0090
:101be0000202b8000a054200e0854a008b05420067
:101bf000000ab800890442000a854a00e0854d00c9
:101c0000010ab8000a0542008b854a00020ab800a2
:101c10008b0542008b0542000012b8000a05420005
:101c20008b854a008b0542000400280084844c0008
:101c300060054d00e0854d004f48de004152dd005b
:101c400004007000cf50de00415add008480700037
:101c50004fd9de008013780081137800821378005a
:101c6000cf91de000004b8000102b80089044200f0
:101c700060854a000202b8000a054200e0854a0079
:101c80008b054200000ab800890442000a854a0018
:101c9000e0854d00010ab8000a0542008b854a0024
:101ca000020ab8008b0542008b0542000012b80002
:101cb0000a0542008b854a008b054200040028007b
:101cc00084844c0060054d00e0854d004f48de00e7
:101cd0004152dd0004007000cf50de00415add00ab
:101ce000848070004fd9de00801378008113780063
:101cf00082137800cf91de000004b8000102b80022
:101d00008904420060854a000202b8000a054200c8
:101d1000e0854a008b054200000ab80089044200b1
:101d20000a854a00e0854d00010ab8000a05420014
:101d30008b854a00020ab8008b0542008b054200e1
:101d40000012b8000a0542008b854a008b0542004c
:101d50000400280084844c0060054d00e0854d009f
:101d60004f48de004152dd0004007000cf50de001d
:101d7000415add00848070004fd9de008013780066
:101d800081137800821378008f037800e683530074
:101d900007037800eb00200027017800a7017800f6
:101da00027027800cf14de00c11add000580740020
:101db0004f1dde00c122dd00850075004fa1de0051
:101dc0000013780001137800021378008b05e900f6
:101dd0000b00e000f0ff3c008f037800440520007a
:101de0008485530004002000150020000003eb0050
:101df0008003eb00ea002000e48747008e1f780094
:101e0000fe002000e6854500100020000a00dd00ed
:101e10000c00e1002b003c0000065600e681550056
:101e2000e88747008c9fbe0023007800a30078005d
:101e3000230178008a9fbe00cf91de000404b80021
:101e40000506b8008904460060854e000606b80005
:101e50000a054600e0854e000706b8008b054600df
:101e6000040eb800890446000a854e00e0854d0046
:101e7000050eb8000a0546008b854e00060eb80018
:101e80008b0546000416b8000a0546008b854e00f7
:101e90000516b8008b0546000416b8008b054600f1
:101ea0000c0028000c02440060824c00e0024d004f
:101eb00060834d00cfb3de004f05be004f06be006d
:101ec000e8875700610555000e07e9000e00e000a5
:101ed000ccff3c004f077800e4875700a2052000a4
:101ee000828757004f00be004f89de000404b8000f
:101ef0000506b8008904460060854e000606b80055
:101f00000a054600e0854e000706b8008b0546002e
:101f1000040eb800890446000a854e00e0854d0095
:101f2000050eb8000a0546008b854e00060eb80067
:101f30008b0546000416b8000a0546008b854e0046
:101f40000516b8008b0546000416b8008b05460040
:101f50000400280004044400e0844c0060054d00a7
:101f6000e0854d00090078008a0078000b00e00051
:101f700002003a000af0a30005003900f0ff2f002c
:101f8000f1ff270002003700a205200082875700da
:101f90004f06be004f05be004f04be000000060005
:101fa00000027800810278000000e00010003a0092
:101fb000020028008101780000002800cf80de00a8
:101fc0000218e70000000600f2ff270000002800ca
:101fd0008000eb000218e70000000600f0ff2f0071
:101fe000f1ff27000001eb000218e70000000600e7
:101ff000889fbe008a9fbe008c9fbe0004007800b0
:10200000850078001800200001f0a30004003900ca
:10201000f8ff2f0001c2b9000040b9008100420062
:10202000881f7800809fbe008181cf000300e00000
:1020300004003a000118e700030120000081cf00ee
:1020400083014100e28151007018e10008003c006a
:102050000300e00009003200708111000202de007e
:102060008308dd00848070000300dd00030037007a
:10207000708151008200dd000000eb00831f7800ba
:10208000050028000002eb000001520081815a0087
:10209000858041000414b8000516b8008904460084
:1020a00060854e008005eb00040eb80089044600f0
:1020b0000a854e00e0854d00050eb8000a05460071
:1020c0008b854e004f48de00c150dd0001037000db
:1020d0004f50de00c158dd00810370000214b800cb
:1020e0000316b8008904460060854e008005eb00a9
:1020f000890446000a854e00e0854d00031eb800a5
:102100000a0546008b854e004f48de00c150dd00b9
:10211000010170004f50de00c158dd0081017000e8
:1021200000002800808041000614b8000716b8009f
:102130008904460060854e008005eb00060eb8005d
:10214000890446000a854e00e0854d00070eb80060
:102150000a0546008b854e004f48de00c150dd0069
:10216000010370004f50de00c158dd008103700094
:102170000214b8000316b8008904460060854e00ba
:102180008005eb00890446000a854e00e0854d007d
:10219000031eb8000a0546008b854e004f48de003e
:1021a000c150dd00010170004f50de00c158dd005c
:1021b0008101700000002800808041000614b800f2
:1021c0000716b8008904460060854e008005eb00c4
:1021d000060eb800890446000a854e00e0854d00d1
:1021e000070eb8000a0546008b854e004f48de00fa
:1021f000c150dd00010370004f50de00c158dd000a
:10220000810370000214b8000316b8008904460068
:1022100060854e008005eb00890446000a854e006b
:10222000e0854d00031eb8000a0546008b854e0070
:102230004f48de00c150dd00010170004f50de004c
:10224000c158dd008101700000002800808041003d
:102250000614b8000716b8008904460060854e00d1
:102260008005eb00060eb800890446000a854e0082
:10227000e0854d00070eb8000a0546008b854e002c
:102280004f48de00c150dd00010370004f50de00fa
:10229000c158dd00810370000214b8000316b800b5
:1022a0008904460060854e008005eb0089044600e5
:1022b0000a854e00e0854d00031eb8000a05460061
:1022c0008b854e004f48de00c150dd0001017000db
:1022d0004f50de00c158dd00810170000000280071
:1022e000808041000614b8000716b8008904460033
:1022f00060854e008005eb00060eb800890446009c
:102300000a854e00e0854d00070eb8000a0546001c
:102310008b854e004f48de00c150dd000103700088
:102320004f50de00c158dd00810370000214b80078
:102330000316b8008904460060854e008005eb0056
:10234000890446000a854e00e0854d00031eb80052
:102350000a0546008b854e004f48de00c150dd0067
:10236000010170004f50de00c158dd008101700096
:1023700000002800808041000614b8000716b8004d
:102380008904460060854e008005eb00060eb8000b
:10239000890446000a854e00e0854d00070eb8000e
:1023a0000a0546008b854e004f48de00c150dd0017
:1023b000010370004f50de00c158dd008103700042
:1023c0000214b8000316b8008904460060854e0068
:1023d0008005eb00890446000a854e00e0854d002b
:1023e000031eb8000a0546008b854e004f48de00ec
:1023f000c150dd00010170004f50de00c158dd000a
:102400008101700000002800808041000614b8009f
:102410000716b8008904460060854e008005eb0071
:10242000060eb800890446000a854e00e0854d007e
:10243000070eb8000a0546008b854e004f48de00a7
:10244000c150dd00010270004f50de00c158dd00b8
:1024500081027000cf017800120020007018e100a6
:1024600004003c00f08011008110de000310dd004c
:1024700003003700f08051008110dd000000eb0008
:102480004f89de00820178000404b8000506b80018
:102490008904460060854e00040eb8008904460099
:1024a0000a854e00050eb8000a0546000416b8005d
:1024b0000a054600e00546004f02be004e22de003f
:1024c000422edd000c027200ce2ade0057002000f2
:1024d0000500e00002003a000720e1000500350099
:1024e0000700240007044400e0844c0060054d0010
:1024f000e0854d004f40de00414add0004007000e1
:10250000cf48de004152dd00848070004f51de0074
:10251000415add00040171000200e00002003a00af
:1025200001f0a30002003900f0ff2f00f1ff2700a7
:102530004f04780001c2b9000040b9008100420098
:102540004f06be004f05be004f04be00000006004f
:1025500000027800810278000000e00010003a00dc
:102560000200280081017800e0ff2f00cf80de000c
:102570000218e70000000600f2ff270020002000fc
:10258000cf80de000218e70000000600f0ff2f00f9
:10259000f1ff27000001eb000218e7000000060031
:1025a0000400780085007800889fbe001800200095
:1025b00001f0a30004003900f8ff2f0001c2b900a8
:1025c0000040b90081004200881f780000017800b7
:1025d000810178000300e00014003a00140020009c
:1025e0000220e10007003a00f0ff2f00f1ff270072
:1025f00001c2b9000040b900810042004f04be0092
:1026000000000600240020000220e10007003a003c
:10261000f0ff2f00f1ff270001c2b9000040b90010
:10262000810042004f04be00000006008181cf00ff
:102630000300e00004003a000118e7000301200055
:102640000081cf0083014100e28151007018e10058
:1026500005003c00708111000202de008308dd00ed
:102660008480700002003700708151008200dd001c
:1026700004002800810252006118e1008300340048
:102680008a9fbe008c9fbe0000002200060028002a
:10269000050343000625b8004f55de00c15ddd008f
:1026a0000b027500052db80000054500e0854d00c2
:1026b0004e55de00c25ddd008b027500e0834200f6
:1026c0000725b8006126b9008c8545000b0278000b
:1026d000052db800e1854500c1dade0000002400c8
:1026e00006002800850343000725b8004230de00bd
:1026f00000054500e0854d004f55de00c15ddd0061
:102700000b027500052db80000e023000005450010
:10271000e0854d004f55de00c15ddd008b02750088
:10272000850343000725b8004f52de00415cdd0001
:10273000080272004f5cde0000002400052db80086
:1027400000054500e0854d004f55de00c15ddd0010
:102750008b02750085034300043db80008beb90034
:102760008c8545004f52de00415cdd00080272009e
:102770004f5cde00052db80000054500e0854d00ea
:102780004f55de00c15ddd008b02750085034300ff
:10279000043db80008beb9008c8545004f52de00ec
:1027a000415cdd00080272004f5cde00052db800c0
:1027b00000054500e0854d004f55de00c15ddd00a0
:1027c0008b02750085034300043db80008beb900c4
:1027d0008c8545004f52de00415cdd00080272002e
:1027e000cf5ade00120020007018e10004003c0007
:1027f000f08011008110de000310dd0003003700bf
:10280000f08051008110dd000000eb004f89de00f8
:10281000820178004fabde00860378000404b80024
:102820000506b8008904460060854e000606b8001b
:102830000a054600040eb800890446000a854e00c9
:10284000050eb8000a0546000416b8000a05460041
:102850008b0546004e40de00424add000400700059
:10286000ce48de004252dd00848070004f06be007c
:102870004f05be004f04780001c2b9000040b90006
:10288000810042004f04be00000006000300e0008b
:102890007c0034008a9fbe008c9fbe000000220096
:1028a00006002800850343000725b8004f55de00c9
:1028b000c15ddd000b027500052db8000005450067
:1028c000e0854d004e55de00c25ddd008b027500d7
:1028d000e08342000725b8006126b9008c854500d9
:1028e0000b027800052cb80006044400e0844c007c
:1028f000c1cade004100dd00060028008503430058
:102900000725b8004f55de00c15ddd000b027500e4
:10291000052db80000054500e0854d004f55de004f
:10292000c15ddd008b027500850343000725b800fb
:102930004f55de00c15ddd000b027500052db800ae
:1029400000054500e0854d004f55de00c15ddd000e
:102950008b027500850343000725b8004f52de0047
:10296000415cdd00080272004f5cde00052db800fe
:1029700000054500e0854d004f55de00c15ddd00de
:102980008b02750085034300043db80008beb90002
:102990008c8545004f52de00415cdd00080272006c
:1029a0004f5cde00052db80000054500e0854d00b8
:1029b0004f55de00c15ddd008b02750085034300cd
:1029c000043db80008beb9008c8545004f52de00ba
:1029d000415cdd0008027200cf5ade0012002000c8
:1029e0007018e10004003c00f08011008110de004e
:1029f0000310dd0003003700f08051008110dd007e
:102a00000000eb004f89de00820178004fabde0052
:102a1000860378000404b8000506b800890446005f
:102a200060854e000606b8000a054600040eb80090
:102a3000890446000a854e00050eb8000a054600c6
:102a40000416b8000a0546008b0546004e40de001d
:102a5000424add0004007000ce48de004252dd0034
:102a6000848070004f06be004f05be004f04780002
:102a700001c2b9000040b900810042004f04be000d
:102a8000000006008a9fbe008c9fbe00000024004c
:102a900006002800850343000725b8004f55de00d7
:102aa000c15ddd000b027500052db8000005450075
:102ab000e0854d004f55de00c15ddd008b027500e5
:102ac000850343000725b8004f55de00c15ddd00da
:102ad0000b027500052db80000054500e0854d008e
:102ae0004f55de00c15ddd008b027500850343009c
:102af0000725b8004f55de00c15ddd000b027500f3
:102b0000052db80000054500e0854d004f55de005d
:102b1000c15ddd008b027500850343000725b80009
:102b20004f55de00c15ddd000b027500052db800bc
:102b300000054500e0854d004f55de00c15ddd001c
:102b40008b0275000004eb00850343000725b800e5
:102b50004f52de00415cdd00080272004f5cde0077
:102b6000052db80000054500e0854d004f55de00fd
:102b7000c15ddd008b02750085034300043db80094
:102b800008beb9008c8545004f52de00415cdd0077
:102b9000080272004f5cde00052db80000054500fc
:102ba000e0854d004f55de00c15ddd008b027500f4
:102bb00085034300043db80008beb9008c8545007c
:102bc0004f52de00415cdd0008027200cf5ade0089
:102bd000120020007018e10004003c00f080110099
:102be0008110de000310dd0003003700f08051008b
:102bf0008110dd000000eb004f89de0082017800cb
:102c00004fabde00860378000404b8000506b80068
:102c10008904460060854e000606b8000a05460095
:102c2000040eb800890446000a854e00050eb8005f
:102c30000a0546000416b8000a0546008b05460042
:102c40004e40de00424add0004007000ce48de0047
:102c50004252dd00848070004f06be004f05be006a
:102c60004f04780001c2b9000040b9008100420061
:102c70004f04be00000006001600200001f0a30073
:102c800004003900f6ff2f0001b2b9000030b9008e
:102c900081004200861f78004f89de00cf89de0068
:102ca000e4062300f5452100810178000403b80003
:102cb0000500b80087034000608348000418b8008e
:102cc00087034000068348000518b800060340004b
:102cd000e08148000410b8000603400083814800ea
:102ce0000510b8008301400083014000860278008f
:102cf0004f037800040022008480430060814a0072
:102d0000e0814900ce08de004212dd000480700040
:102d10004e11de00421add00840071000100a700a0
:102d20000603ea0000f0a70060001000d11725009c
:102d30000100e10018003100814826000100b800c0
:102d40004d00de00c308dd008100700081037800c3
:102d50000109b8000308b80050552500000ab80062
:102d6000c1aade00858353000308b8004044240054
:102d7000000ab800c5aade00858343000308b80036
:102d800000682000000ab800c7aade00858353004f
:102d90000730b90000000600010028000080500044
:102da000814826000100b8004d00de00c308dd00a8
:102db00081007000c01b20000008e100030031000a
:102dc000f0ff2f000030b9000000060002002000d4
:102dd000130020000108b8008103780004002800d7
:102de0000122b80005015100e08159000708b80030
:102df000545525000122b800c3aade000501410098
:102e0000e08149000708b80034d822000122b80048
:102e1000c7aade0005015100e08159000708b8008b
:102e2000040d20000122b800c7aade000501410000
:102e3000e08149000708b800240020000122b80002
:102e4000c7aade0005015100e081590003b2b900b4
:102e50000230b9008100420000000600008000003e
:102e600000000000f15b000001000000cdb1000097
:102e700003000000f30a00000a000000904c00006c
:102e80001b000000e23400004a000000e3b600002e
:102e9000c90000000b510000240200009f7a0000ce
:102ea000d2050000be8a0000d30f00009f3b000047
:102eb000052b000024120000f17400000000000047
:102ec0002d5e0000a5220000bf0c0000b004000031
:102ed000ba010000a20000003c0000001600000043
:102ee000080000000300000001000000889fbe00f1
:102ef0008a9fbe008c9fbe0001047800829fbe00a6
:102f000000017800810178000300e0000500340032
:102f10004112de00cf1add0004817200c199de008b
:102f2000040037000500280003abb9000229b800ef
:102f3000830143000002eb000380cf000000e000ab
:102f400004003a000300e700000120008280cf0067
:102f50000080400062005000f00010000112de000e
:102f60008019dd00830172000011dd0004002800db
:102f700004825100c113de00cf22dd008580730082
:102f80008402780041a2de004f11de00c12add007c
:102f90008502710005abb9000600220007b1b90037
:102fa0008280500003025a0005bbb900565521002b
:102fb00007b1b9008280400003024a0005bbb90096
:102fc0000600210007b1b9008280500003025a00b8
:102fd00005bbb900d6cc200007b1b9008280400003
:102fe00003024a0005bbb900b6aa200007b1b90028
:102ff0008280500003025a0005bbb900569220009f
:1030000007b1b9008280400003024a0005bbb90045
:103010000680200007b1b9008280500003025a00e8
:1030200005bbb900c671200007b1b900828040001d
:1030300003024a0005bbb9006666200007b1b9006b
:103040008280500003025a0005bbb900165d2000c3
:1030500007b1b9008280400003024a00c508de00c3
:10306000cb22dd0005817000c5a1de006000e1001b
:103070000b003a000800e00004003400e562210083
:10308000f42f240004014100858149004910de002d
:10309000c71add0005007000c998de00fd0037008a
:1030a0006100e10010003a002516200004432e00c4
:1030b00004015100858159000800e000050034003a
:1030c000e5622100f42f24000401410085814900bc
:1030d0004110de004910de00c71add000500700057
:1030e000c998de00eb0037006200e1000f003a00f3
:1030f000552c200004862c000401510085815900c4
:103100000800e00004003400e5622100f42f2400f0
:1031100004014100858149004910de00c71add0025
:1031200005007000c998de00da0037006300e10096
:103130000f003a008542200004c92a000401510012
:10314000858159000800e00004003400e562210098
:10315000f42f240004014100858149004910de005c
:10316000c71add0005007000c998de00c9003700ed
:103170006400e1000f003a00b5582000040c29005b
:1031800004015100858159000800e000040034006a
:10319000e5622100f42f24000401410085814900eb
:1031a0004910de00c71add0005007000c998de0076
:1031b000b80037006500e1000f003a00e56e20001e
:1031c000044f270004015100858159000800e000e8
:1031d00004003400e5622100f42f240004014100c2
:1031e000858149004910de00c71add000500700026
:1031f000c998de00a70037006600e1000f003a0022
:103200001585200004922500040151008581590094
:103210000800e00004003400e5622100f42f2400df
:1032200004014100858149004910de00c71add0014
:1032300005007000c998de00960037006700e100c5
:103240000f003a00459b2000f4d4230004015100f4
:10325000858159000800e00004003400e562210087
:10326000f42f240004014100858149004910de004b
:10327000c71add0005007000c998de008500370020
:103280006800e1000f003a0075b12000e417220049
:1032900004015100858159000800e0000400340059
:1032a000e5622100f42f24000401410085814900da
:1032b0004910de00c71add0005007000c998de0065
:1032c000740037006900e1000f003a00a5c7200034
:1032d000f45a200004015100858159000800e000e3
:1032e00004003400e5622100f42f240004014100b1
:1032f000858149004910de00c71add000500700015
:10330000c998de00630037006a00e1000f003a0050
:10331000c5dd2000f49d2e00040151008581590077
:103320000800e00004003400e5622100f42f2400ce
:1033300004014100858149004910de00c71add0003
:1033400005007000c998de00520037006b00e100f4
:103350000f003a00f5f32000f4e02c0004015100c6
:10336000858159000800e00004003400e562210076
:10337000f42f240004014100858149004910de003a
:10338000c71add0005007000c998de004100370053
:103390006c00e1000f003a00250a2100f4232b0005
:1033a00004015100858159000800e0000400340048
:1033b000e5622100f42f24000401410085814900c9
:1033c0004910de00c71add0005007000c998de0054
:1033d000300037006d00e1000f003a005520210059
:1033e000f466290004015100858159000800e000bd
:1033f00004003400e5622100f42f240004014100a0
:10340000858149004910de00c71add000500700003
:10341000c998de001f0037006e00e1000f003a007f
:1034200085362100f4a92700040151008581590047
:103430000800e00004003400e5622100f42f2400bd
:1034400004014100858149004910de00c71add00f2
:1034500005007000c998de000e003700b54c210051
:10346000e4ec250004015100858159000800e000ca
:1034700004003400e5622100f42f2400040141001f
:10348000858149004910de00c71add000500700083
:10349000c998de004f02be004f89de004fabde0050
:1034a0000404b8000506b8008904460060854e0093
:1034b0000606b8000a054600e0854e008b0546006a
:1034c000040eb800890446000a854e00e0854d00d0
:1034d000050eb8000a0546008b854e00060eb800a2
:1034e0008b0546000416b8000a0546008b854e0081
:1034f0000516b8008b0546000416b8008b0546007b
:103500004242de00ce49dd0003047200c24ade0002
:10351000ce51dd00838472004253de00ce59dd00bf
:1035200003057300c2ddde000bf0a3000e003100c6
:10353000b5962900f49d2d000802520089825a0098
:1035400062031d00e0835d0007f0a3001600390050
:10355000f0ff2f00f1ff27004f06be004f05be0011
:103560004f04be000000060034a22100b5dd20009b
:10357000d6ff2f00f7ff2f000402540085825c0065
:1035800006035d0087835d0007f0a3000600390095
:103590008000eb000000eb004f06be004f05be00b0
:1035a0004f04be00000006004e4ade00c252dd009d
:1035b000048272008002eb0004f0a70015002000d6
:1035c0000001eb000590e7000402ea00849fbe00c2
:1035d00004aab90009e0a10009f0a1000003eb0072
:1035e000070024000803430089834b00080078008b
:1035f000890078004f89de000004b8000106b80099
:103600008904460060854e000206b8000a0546009f
:103610008c854e00000eb800890446000a854e00d5
:10362000e0854d00010eb8000a0546008b854e006e
:10363000020eb8008b0546008b0546000016b80048
:103640000a0546008b854e008b0546004e4ade007b
:10365000c254dd0004827400ce52de00c25cdd0084
:1036600085827400080024004fa9de008005eb006d
:103670000446b800e004460060854e00e0854d0039
:103680000546b8000a0546008b854e000246b80084
:103690008b054600020024008284440060054d0032
:1036a000e0854d004f49de00c154dd000281740009
:1036b000cf51de00c15cdd00838174000203430052
:1036c00083834b004f89de00cfa9de000404b800dd
:1036d0000506b8008904460060854e000306b80060
:1036e0000a054600e0854e000306b8008b0546003b
:1036f000040eb800890446000a854e00e0854d009e
:10370000050eb8000a0546008b854e00030eb80072
:103710008b0546000416b8000a0546008b854e004e
:103720000516b8008b0546000416b8008b05460048
:10373000e184440060054d00e0854d004e4ade0006
:10374000c254dd0004827400ce52de00c25cdd0093
:1037500085827400b3aa2a000324b800a8aa200016
:103760000826b8008904460060854e008005eb00fd
:10377000032eb800890446000a854e00e0854d00fe
:10378000082eb8000a0546008b854e004fa9de00c2
:103790000316b8000a0546008b854e000816b800cf
:1037a0008b0546000316b8008b0546000800220072
:1037b0008884440060054d00e0854d004e49de00e0
:1037c000c254dd0002817400ce51de00c25cdd0017
:1037d000838174000203430083834b004f89de0022
:1037e000cfa9de000404b8000506b800890446002d
:1037f00060854e000306b8000a054600e0854e00cd
:103800000306b8008b054600040eb8008904460084
:103810000a854e00e0854d00050eb8000a054600f9
:103820008b854e00030eb8008b0546000416b800c9
:103830000a0546008b854e000516b8008b0546002c
:103840000416b8008b054600e184440060054d0075
:10385000e0854d004e4ade00c254dd000482740053
:10386000ce52de00c25cdd0085827400b3aa2a005d
:103870000324b800a82a20000826b80089044600be
:1038800060854e008005eb00032eb80089044600d9
:103890000a854e00e0854d00082eb8000a05460056
:1038a0008b854e004fa9de000316b8000a054600be
:1038b0008b854e000816b8008b0546000316b8002d
:1038c0008b054600080022008884440060054d00f6
:1038d000e0854d004e49de00c254dd0002817400d7
:1038e000ce51de00c25cdd00838174000203430020
:1038f00083834b004f89de00cfa9de000404b800ab
:103900000506b8008904460060854e000306b8002d
:103910000a054600e0854e000306b8008b05460008
:10392000040eb800890446000a854e00e0854d006b
:10393000050eb8000a0546008b854e00030eb80040
:103940008b0546000416b8000a0546008b854e001c
:103950000516b8008b0546000416b8008b05460016
:103960004e4ade00c254dd0004827400ce52de00f6
:10397000c25cdd0085827400938828000324b800af
:10398000880820000826b8008904460060854e009b
:103990008005eb00032eb800890446000a854e001e
:1039a000e0854d00082eb8000a0546008b854e00c4
:1039b0004fa9de000316b8000a0546008b854e00ad
:1039c0000816b8008b0546000316b8008b054600a4
:1039d000080022008884440060054d00e0854d0009
:1039e0004e49de00c254dd0002817400ce51de007b
:1039f000c25cdd00838174000203430083834b00bb
:103a00004f89de00cfa9de000404b8000506b80027
:103a10008904460060854e000306b8000a0546008a
:103a2000e0854e000306b8008b054600040eb80082
:103a3000890446000a854e00e0854d00050eb80059
:103a40000a0546008b854e00030eb8008b05460024
:103a50000416b8000a0546008b854e000516b8000e
:103a60008b0546000416b8008b0546004e4ade0062
:103a7000c254dd0004827400ce52de00c25cdd0060
:103a800085827400c3162c000324b800680120004e
:103a90000826b8008904460060854e008005eb00ca
:103aa000032eb800890446000a854e00e0854d00cb
:103ab000082eb8000a0546008b854e004fa9de008f
:103ac0000316b8000a0546008b854e000816b8009c
:103ad0008b0546000316b8008b054600080022003f
:103ae0008884440060054d00e0854d004e49de00ad
:103af000c254dd0002817400ce51de00c25cdd00e4
:103b0000838174000203430083834b004f89de00ee
:103b1000cfa9de000404b8000506b80089044600f9
:103b200060854e000306b8000a054600e0854e0099
:103b30000306b8008b054600040eb8008904460051
:103b40000a854e00e0854d00050eb8000a054600c6
:103b50008b854e00030eb8008b0546000416b80096
:103b60000a0546008b854e000516b8008b054600f9
:103b70000416b8008b0546004e4ade00c254dd0034
:103b800004827400ce52de00c25cdd0085827400c7
:103b9000430324000324b800380020000826b8009e
:103ba0008904460060854e008005eb00032eb800b6
:103bb000890446000a854e00e0854d00082eb800b5
:103bc0000a0546008b854e004fa9de000316b8009b
:103bd0000a0546008b854e000816b8008b05460086
:103be0000316b8008b0546000800220088844400b4
:103bf00060054d00e0854d004e49de00c254dd00f9
:103c000002817400ce51de00c25cdd00838174004d
:103c10000203430083834b004f89de00cfa9de00ff
:103c20000404b8000506b8008904460060854e000b
:103c30000306b8000a054600e0854e000306b800fa
:103c40008b054600040eb800890446000a854e0024
:103c5000e0854d00050eb8000a0546008b854e0034
:103c6000030eb8008b0546000416b8000a0546008e
:103c70008b854e000516b8008b0546000416b8006b
:103c80008b0546004e4ade00c254dd0004827400fb
:103c9000ce52de00c25cdd00858274007380260097
:103ca0000324b8008005eb00032eb800e0044600b2
:103cb00060854e00e0854d004fa9de000316b80078
:103cc0000a0546008b854e000316b8008b0546009a
:103cd000080022008884440060054d00e0854d0006
:103ce0004e49de00c254dd0002817400ce51de0078
:103cf000c25cdd00838174000203430083834b00b8
:103d00004f89de00cfa9de000404b8000506b80024
:103d10008904460060854e000306b8000a05460087
:103d2000e0854e000306b8008b054600040eb8007f
:103d3000890446000a854e00e0854d00050eb80056
:103d40000a0546008b854e00030eb8008b05460021
:103d50000416b8000a0546008b854e000516b8000b
:103d60008b0546000416b8008b0546004e4ade005f
:103d7000c254dd0004827400ce52de00c25cdd005d
:103d800085827400f3b820000324b8008005eb009e
:103d9000032eb800e004460060854e00e0854d002b
:103da0004fa9de000316b8000a0546008b854e00b9
:103db0000316b8008b0546000800220088844400e2
:103dc00060054d00e0854d004e49de00c254dd0027
:103dd00002817400ce51de00c25cdd00838174007c
:103de0000203430083834b004f89de00cfa9de002e
:103df0000404b8000506b8008904460060854e003a
:103e00000306b8000a054600e0854e000306b80028
:103e10008b054600040eb800890446000a854e0052
:103e2000e0854d00050eb8000a0546008b854e0062
:103e3000030eb8008b0546000416b8000a054600bc
:103e40008b854e000516b8008b0546000416b80099
:103e50008b0546004e4ade00c254dd000482740029
:103e6000ce52de00c25cdd00858274008312200029
:103e70000324b8008005eb00032eb800e0044600e0
:103e800060854e00e0854d004fa9de000316b800a6
:103e90000a0546008b854e000316b8008b054600c8
:103ea000080022008884440060054d00e0854d0034
:103eb0004e49de00c254dd0002817400ce51de00a6
:103ec000c25cdd00838174000203430083834b00e6
:103ed0004f89de00cfa9de000404b8000506b80053
:103ee0008904460060854e000306b8000a054600b6
:103ef000e0854e000306b8008b054600040eb800ae
:103f0000890446000a854e00e0854d00050eb80084
:103f10000a0546008b854e00030eb8008b0546004f
:103f20000416b8000a0546008b854e000516b80039
:103f30008b0546000416b8008b0546004e4ade008d
:103f4000c254dd0004827400ce52de00c25cdd008b
:103f500085827400b30120000324b8008005eb00c3
:103f6000032eb800e004460060854e00e0854d0059
:103f70004fa9de000316b8000a0546008b854e00e7
:103f80000316b8008b054600080022008884440010
:103f900060054d00e0854d004e49de00c254dd0055
:103fa00002817400ce51de00c25cdd0083817400aa
:103fb0000203430083834b004f02be000500e00074
:103fc00030003a004222dd0000002000900188000d
:103fd000e1722100848040003100ba009100ba00f3
:103fe0004f89de0006027800870278000003eb00ac
:103ff0000404b8000506b8008904460060854e0038
:104000000606b8000a054600e0854e008b0546000e
:10401000040eb800890446000a854e00e0854d0074
:10402000050eb8000a0546008b854e00060eb80046
:104030008b0546000416b8000a0546008b854e0025
:104040000516b8008b0546008b05460004002100cc
:104050008484440060054d00e0854d00cd4cde00b9
:104060004352dd00048074004d55de00435add00ec
:10407000840075004f06be004f05be004f04be0011
:10408000000006004122dd000000200090018800b1
:10409000e1752100848040001100ba00060278001a
:1040a000870278000003eb000404b8000506b8009e
:1040b0008904460060854e000606b8000a054600e1
:1040c000e0854e008b0546008b054600ce4cde0099
:1040d0004252dd00048074004e55de00425add007d
:1040e000840075004f06be004f05be004f04be00a1
:1040f00000000600889fbe008a9fbe008c1f7800cb
:104100009d000700a400330003866c006450e100aa
:104110002e0032006420e100330032006150e100e3
:104120002f0032006120e10031003200858555000a
:10413000eb07b0000900200008042000050037004c
:104140000804440089844c000a003100060343003f
:1041500087834b000001530081815b00f8ff33002f
:104160000203be000800a0000804440089844c003b
:10417000f6ff3900c639dd0083017300010032000b
:10418000130020008904d1000884d3000998a300fb
:10419000050032000800a7000300a0008904d10038
:1041a0000884d3008b05e8008904d1000884d3007b
:1041b0000001eb000281d2003400070001f0a100f1
:1041c0000cf0a70001f0a0007c0037006420e100a3
:1041d0007e0032000801be000200be00f7ff37007b
:1041e0006120e100790032006000b800f3ff370081
:1041f0000000200001f82700f0ff37000001be009a
:10420000480007000470a70003f0a1006509b10091
:10421000160032000d0035006828e1000600350068
:10422000f0ff2f00f1ff27000300e00013003b0028
:1042300001002800000005000000400081804800c7
:104240008502e900fcff3a0008003700f88f4200c1
:1042500002003c008000eb00000005008100d1005e
:104260000080d3008502e800fcff3a000300e00074
:1042700002003b0060001000e08018000000060013
:104280004f89de00820178008a003700810020001b
:10429000618055000b003d000b00200061fe2f00e7
:1042a0000100e1001d0034008281710061016400a1
:1042b0008904d1000884d3000000e800faff3a0026
:1042c00071002000610064000300700002006000c3
:1042d0000900320061044400e0844c000988a50014
:1042e000050032008b05e8006808e10002003a0092
:1042f0008904d1000884d300f20f20000258e100a5
:1043000005003d00c75ddd00f907b200898075003a
:1043100008007800000006000bf827008b007800ea
:1043200000000500c70ade00f107b200f50fb20079
:1043300008003200e1cf4200020032000170a0000c
:1043400024000500810f7000010032000408050000
:1043500044000500810f700002003a0014000500bf
:104360008502e9000000400081c04800fcff3b00de
:104370000170a000240005000004be00e9ff070052
:104380000003be000405be000200be00e5ff0700fa
:10439000844f7500000006000200be006450e1007a
:1043a000050036006420e100020036000968a30021
:1043b00001003a000800be000160a0004f0678002e
:1043c0004f05be004f04be0000000600f0ff2f00a6
:1043d000f1ff2700f9ff3700889fbe008a9fbe00cb
:1043e0008c1f7800e4ff0700ebff330003866c00ae
:1043f0006450e100240032006420e1002700320014
:104400006150e100220032006120e1002100320011
:104410008b854200eb07b1000134b800003ab800c8
:104420000804420089844a00013ab8000030b8000c
:104430008880400009014a00040033000000400069
:1044400081804800020149008b05e900c909dd00af
:10445000830170000100320013002000c814de0048
:104460004814dd004709de001200b200c808de0073
:104470000884700085ff070001f0a1000cf0a70080
:1044800001f0a000cdff37006120e100cfff320036
:104490000801be000200be00f7ff37006150e100d6
:1044a000fcff3a00c9ff3700410007000400be00ce
:1044b00000000600881f7800030478000300e00075
:1044c00007003d0060001000e08018006001190046
:1044d000e081190002003b0001f02d0003003700cd
:1044e0000400070008f0a70001f0a0004f047800c6
:1044f00000000600889fbe008a9fbe0000827000f8
:104500000402710004827100260032000004be0023
:104510000200be006011b8006b0920009502200067
:104520000182cf000a0039000541b1000082cf00ae
:10453000070039000541b1000982cf0004003900ad
:104540000541b1000882cf00010039000541b100ea
:1045500005425200120032000a003b0082817100c5
:10456000610164008100d1000080d3008984d30000
:104570000884d3008b05e8000442e800f7ff3a0006
:10458000070037000804440089844c0000004800fc
:10459000818048008b05e9000442e900f9ff3a00f8
:1045a0003aff07004f05be004f04be0000000600a2
:1045b0006022b800060220000000d0008180d200f6
:1045c0000482d2008582d2000000a00002025200c4
:1045d00083825a00030031000202420083824a00b3
:1045e0000000a1000603e900f3ff3a000000060006
:1045f0008001780002003700b1597800040178008a
:104600000202e900e00f5100fbff3a000000060043
:020000040000fa
:104610000400fa00008fbe0002002000037824008e
:104620001e00be006cff0700f4fe07000080fa00c9
:10463000000006000000fa005ec8bf006040600095
:104640005ee8b7005fc8bf00604060005fe8b70089
:1046500062c8bf00e040600000cdb30000c0700041
:1046600062e8b70063c8bf00604060007040b300fc
:1046700063e8b70066c8bf00e040600080ccb300cc
:1046800000c0700066e8b70067c8bf006040600007
:1046900067e8b70060c8bf006040600060e8b7002e
:1046a00061c8bf006040600061e8b70064c8bf0037
:1046b000e040600080ccb30000c0700064e8b70048
:1046c00065c8bf006040600065e8b70068c8bf000b
:1046d000e040600020c3b30000c0700068e8b7008d
:1046e00069c8bf006040600069e8b7006000b800ba
:1046f000c7ff0700f20f200082016000a2812000a6
:104700001241780060416100034171000001fd0029
:104710001ae8b7000001fd00c801de00b2812000e8
:10472000124178006041610003417100020078008d
:104730001be8b700f20f200082816000c2812000d8
:10474000124178006041610003417100020078006d
:104750001ce8b700c808de001dc8bf00604060004c
:10476000014070001de8b7006000b800a8ff070016
:10477000f20f200082016000e281200012417800e7
:1047800060416100034171000001fd001ee8b700b7
:104790000001fd00c801de00f28120001241780016
:1047a0006041610003417100020078001fe8b7001a
:1047b000f20f200082816000028220001241780006
:1047c00060416100034171000200780020e8b700f9
:1047d000c808de0021c8bf006040600001407000d2
:1047e00021e8b7006000b80089ff0700f20f200041
:1047f0008201600022822000124178006041610045
:10480000034171000001fd0022e8b7000001fd0036
:10481000c801de0032822000124178006041610050
:10482000034171000200780023e8b700f20f200076
:104830008281600042822000124178006041610064
:10484000034171000200780024e8b700c808de00c8
:1048500025c8bf00604060000140700025e8b70037
:104860000000200001f8230069ff0700f20f20007c
:1048700082016000e28820001241780060416100fe
:10488000034171000001fd008ee8b7000001fd004a
:10489000c801de00f288200012417800604161000a
:1048a00003417100020078008fe8b700f20f20008a
:1048b000828160000289200012417800604161001d
:1048c000034171000200780090e8b700c808de00dc
:1048d00091c8bf00604060000140700091e8b700df
:1048e0006000b8004aff0700f20f2000820160005c
:1048f000228920001241780060416100034171006b
:104900000001fd0092e8b7000001fd00c801de00d3
:10491000328920001241780060416100034171003a
:104920000200780093e8b700f20f20008281600057
:10493000428920001241780060416100034171000a
:104940000200780094e8b700c808de0095c8bf00f0
:10495000604060000140700095e8b7006000b8005a
:104960002bff0700f20f2000820160006289200007
:104970001241780060416100034171000001fd00b7
:1049800096e8b7000001fd00c801de007289200032
:10499000124178006041610003417100020078001b
:1049a00097e8b700f20f2000828160008289200022
:1049b00012417800604161000341710002007800fb
:1049c00098e8b700c808de0099c8bf0060406000e2
:1049d0000140700099e8b7006000b8000cff0700c4
:1049e000f20f200082016000a289200012417800ad
:1049f00060416100034171000001fd009ae8b700c9
:104a00000001fd00c801de00b289200012417800db
:104a10006041610003417100020078009be8b7002b
:104a2000f20f200082816000c289200012417800cc
:104a30006041610003417100020078009ce8b7000a
:104a4000c808de009dc8bf006040600001407000e3
:104a50009de8b7000000200001f82300ecfe0700ed
:104a6000f20f200082016000e289200012417800ec
:104a700060416100034171000001fd009ee8b70044
:104a80000001fd00c801de00f2892000124178001b
:104a90006041610003417100020078009fe8b700a7
:104aa000f20f200082816000028a2000124178000b
:104ab000604161000341710002007800a0e8b70086
:104ac000c808de00a1c8bf0060406000014070005f
:104ad000a1e8b7006000b800cdfe0700f20f20008b
:104ae00082016000228a200012417800604161004a
:104af000034171000001fd00a2e8b7000001fd00c4
:104b0000c801de00328a2000124178006041610055
:104b10000341710002007800a3e8b700f20f200003
:104b200082816000428a2000124178006041610069
:104b30000341710002007800a4e8b700c808de0055
:104b4000a5c8bf006040600001407000a5e8b70044
:104b50006000b800aefe0700f20f20008201600086
:104b6000628a2000124178006041610003417100b7
:104b70000001fd00a6e8b7000001fd00c801de004d
:104b8000728a200012417800604161000341710087
:104b900002007800a7e8b700f20f200082816000d1
:104ba000828a200012417800604161000341710057
:104bb00002007800a8e8b700c808de00a9c8bf0056
:104bc0006040600001407000a9e8b7006000b800d4
:104bd0008ffe0700f20f200082016000a28a2000f1
:104be0001241780060416100034171000001fd0045
:104bf000aae8b7000001fd00c801de00b28a20006b
:104c000012417800604161000341710002007800a8
:104c1000abe8b700f20f200082816000c28a20005a
:104c20001241780060416100034171000200780088
:104c3000ace8b700c808de00adc8bf006040600047
:104c400001407000ade8b7000000200001f823002b
:104c50006ffe0700f20f200082016000e28a200050
:104c60001241780060416100034171000001fd00c4
:104c7000aee8b7000001fd00c801de00f28a2000a6
:104c80001241780060416100034171000200780028
:104c9000afe8b700f20f200082816000028b200095
:104ca0001241780060416100034171000200780008
:104cb000b0e8b700c808de00b1c8bf0060406000bf
:104cc00001407000b1e8b7006000b80050fe070076
:104cd000f20f200082016000228b20001241780038
:104ce00060416100034171000001fd00b2e8b700be
:104cf0000001fd00c801de00328b20001241780067
:104d0000604161000341710002007800b3e8b70020
:104d1000f20f200082816000428b20001241780057
:104d2000604161000341710002007800b4e8b700ff
:104d3000c808de00b5c8bf006040600001407000d8
:104d4000b5e8b7006000b80031fe0700f20f2000a0
:104d500082016000628b2000124178006041610096
:104d6000034171000001fd00b6e8b7000001fd003d
:104d7000c801de00728b20001241780060416100a2
:104d80000341710002007800b7e8b700f20f20007d
:104d900082816000828b20001241780060416100b6
:104da0000341710002007800b8e8b700c808de00cf
:104db000b9c8bf006040600001407000b9e8b700aa
:104dc0006000b80012fe0700f20f200082016000b0
:104dd000a28b200012417800604161000341710004
:104de0000001fd00bae8b7000001fd00c801de00c7
:104df000b28b2000124178006041610003417100d4
:104e000002007800bbe8b700f20f2000828160004a
:104e1000c28b2000124178006041610003417100a3
:104e200002007800bce8b700c808de00bdc8bf00bb
:104e30006040600001407000bde8b7002ec8bf00b0
:104e4000604060002ee8b7002fc8bf0060406000df
:104e50000014a0002fe8b70030c8bf00e040600099
:104e600040cfb30000c0700030e8b70031c8bf00c9
:104e7000604060000004a00031e8b700400827004f
:104e800011cd2300e2fd0700f20f20008201600037
:104e9000628220001241780060416100034171008c
:104ea0000001fd0026e8b7000001fd00c801de009a
:104eb000728220001241780060416100034171005c
:104ec0000200780027e8b700f20f2000828160001e
:104ed000828220001241780060416100034171002c
:104ee0000200780028e8b700c808de0029c8bf0023
:104ef000604060000140700029e8b700f026210002
:104f000031a02300c2fd0700f20f200082016000e3
:104f1000a2822000124178006041610003417100cb
:104f20000001fd002ae8b7000001fd00c801de0015
:104f3000b28220001241780060416100034171009b
:104f4000020078002be8b700f20f20008281600099
:104f5000c28220001241780060416100034171006b
:104f6000020078002ce8b700c808de002dc8bf009a
:104f700060406000014070002de8b7000000200094
:104f800041c82300a2fd0700f20f2000820160004b
:104f900022832000124178006041610003417100ca
:104fa0000001fd0032e8b7000001fd00c801de008d
:104fb000328320001241780060416100034171009a
:104fc0000200780033e8b700f20f20008281600011
:104fd000428320001241780060416100034171006a
:104fe0000200780034e8b700c808de0035c8bf000a
:104ff000604060000140700035e8b700000020000c
:1050000001f0230082fd0700f20f20008201600002
:105010006283200012417800604161000341710009
:105020000001fd0036e8b7000001fd00c801de0008
:1050300072832000124178006041610003417100d9
:105040000200780037e8b700f20f2000828160008c
:1050500082832000124178006041610003417100a9
:105060000200780038e8b700c808de0039c8bf0081
:10507000604060000140700039e8b7000000200087
:1050800001fc230062fd0700f20f20008201600096
:10509000a283200012417800604161000341710049
:1050a0000001fd003ae8b7000001fd00c801de0084
:1050b000b283200012417800604161000341710019
:1050c000020078003be8b700f20f20008281600008
:1050d000c2832000124178006041610003417100e9
:1050e000020078003ce8b700c808de003dc8bf00f9
:1050f00060406000014070003de8b7006000b8000b
:1051000043fd0700f20f200082016000e2832000cf
:105110001241780060416100034171000001fd000f
:105120003ee8b7000001fd00c801de00f283200068
:105130001241780060416100034171000200780073
:105140003fe8b700f20f2000828160000284200057
:105150001241780060416100034171000200780053
:1051600040e8b700c808de0041c8bf0060406000ea
:105170000140700041e8b7006000b80024fd07005e
:10518000f20f20008201600022842000124178008a
:1051900060416100034171000001fd0042e8b70079
:1051a0000001fd00c801de003284200012417800b9
:1051b00060416100034171000200780043e8b700dc
:1051c000f20f2000828160004284200012417800aa
:1051d00060416100034171000200780044e8b700bb
:1051e000c808de0045c8bf00604060000140700094
:1051f00045e8b7006000b80005fd0700f20f200089
:1052000082016000628420001241780060416100e8
:10521000034171000001fd0046e8b7000001fd00f8
:10522000c801de00728420001241780060416100f4
:10523000034171000200780047e8b700f20f200038
:105240008281600082842000124178006041610008
:10525000034171000200780048e8b700c808de008a
:1052600049c8bf00604060000140700049e8b700d5
:105270006066260061f62300e5fc0700f20f2000bf
:1052800082016000a2842000124178006041610028
:10529000034171000001fd004ae8b7000001fd0074
:1052a000c801de00b2842000124178006041610034
:1052b00003417100020078004be8b700f20f2000b4
:1052c00082816000c2842000124178006041610048
:1052d00003417100020078004ce8b700c808de0006
:1052e0004dc8bf0060406000014070004de8b7004d
:1052f000d0cc2c00c1dc2300c5fc0700f20f20003d
:1053000082016000e2842000124178006041610067
:10531000034171000001fd004ee8b7000001fd00ef
:10532000c801de00f2842000124178006041610073
:1053300003417100020078004fe8b700f20f20002f
:105340008281600002852000124178006041610086
:10535000034171000200780050e8b700c808de0081
:1053600051c8bf00604060000140700051e8b700c4
:10537000d0cc2c00c1cc2b00a5fc0700f20f2000e4
:1053800082016000228520001241780060416100a6
:10539000034171000001fd0052e8b7000001fd006b
:1053a000c801de00328520001241780060416100b2
:1053b000034171000200780053e8b700f20f2000ab
:1053c00082816000428520001241780060416100c6
:1053d000034171000200780054e8b700c808de00fd
:1053e00055c8bf00604060000140700055e8b7003c
:1053f000d0cc2c00c1cc230085fc0700f20f20008c
:1054000082016000628520001241780060416100e5
:10541000034171000001fd0056e8b7000001fd00e6
:10542000c801de00728520001241780060416100f1
:10543000034171000200780057e8b700f20f200026
:105440008281600082852000124178006041610005
:10545000034171000200780058e8b700c808de0078
:1054600059c8bf00604060000140700059e8b700b3
:10547000a0702d0031c2230065fc0700f20f200050
:1054800082016000a2852000124178006041610025
:10549000034171000001fd005ae8b7000001fd0062
:1054a000c801de00b2852000124178006041610031
:1054b00003417100020078005be8b700f20f2000a2
:1054c00082816000c2852000124178006041610045
:1054d00003417100020078005ce8b700c808de00f4
:1054e0005dc8bf0060406000014070005de8b7002b
:1054f0000080fa00000006000400fa00889fbe0049
:105500008a9fbe008c9fbe0010148000800078002f
:10551000f00f2000008160000ec8bf0060406000f6
:10552000024070000ee8b700c808de000fc8bf00d8
:1055300060406000014070000fe8b7000ec8bf0077
:105540008080fb000fc8bf000080fb004800dd002a
:1055500001007000800078002ec8bf000081fb00b1
:105560002fc8bf000080fb004800dd000200700073
:1055700080805000f00f2000008160000ec8bf0046
:1055800060406000024070000ee8b700c808de000e
:105590000fc8bf0060406000014070000fe8b70016
:1055a0003014800080007800f00f2000008160003f
:1055b00010c8bf00604060000240700010e8b700f3
:1055c000c808de0011c8bf006040600001407000e4
:1055d00011e8b70010c8bf008080fb0011c8bf00f1
:1055e0000080fb004800dd000100700080007800b2
:1055f0002ec8bf000081fb002fc8bf000080fb0049
:105600004800dd000200700080805000f00f200094
:105610000081600010c8bf00604060000240700060
:1056200010e8b700c808de0011c8bf006040600085
:105630000140700011e8b70020148000800078005d
:10564000f00f20000081600012c8bf0060406000c1
:105650000240700012e8b700c808de0013c8bf009f
:10566000604060000140700013e8b70012c8bf003e
:105670008080fb0013c8bf000080fb004800dd00f5
:1056800001007000800078002ec8bf000081fb0080
:105690002fc8bf000080fb004800dd000200700042
:1056a00080805000f00f20000081600012c8bf0011
:1056b000604060000240700012e8b700c808de00d9
:1056c00013c8bf00604060000140700013e8b700dd
:1056d000e1802000a08620002322070062822000b3
:1056e000124178008281fb00728220001241780012
:1056f0000281fb004811dd00030171000200780007
:1057000082822000124178008281fb009282200078
:10571000124178000281fb004811dd000301710095
:1057200082007800a2862000124178008281fb006e
:10573000b2862000124178000281fb004811dd0092
:105740000301710002027800c28620001241780035
:105750008281fb00d2862000124178000281fb008a
:105760004811dd0003017100820278000001be00d3
:105770000400be003922070060001000e08018001d
:10578000f20f200082016000a28620001241780002
:1057900060416100034171000001fd006ae8b7004b
:1057a0000001fd00c801de00b28620001241780031
:1057b0006041610003417100020078006be8b700ae
:1057c000f20f200082816000c28620001241780022
:1057d0006041610003417100020078006ce8b7008d
:1057e000c808de006dc8bf00604060000140700066
:1057f0006de8b70001812000e0862000da21070073
:1058000062822000124178008281fb0072822000b7
:10581000124178000281fb004811dd000301710094
:105820000200780082822000124178008281fb0011
:1058300092822000124178000281fb004811dd00b5
:105840000301710082007800e28620001241780096
:105850008281fb00f2862000124178000281fb0069
:105860004811dd0003017100020278000287200068
:10587000124178008281fb001287200012417800db
:105880000281fb004811dd000301710082027800f3
:105890000001be000400be00f0210700f20f20004e
:1058a00082016000e28620001241780060416100c0
:1058b000034171000001fd006ee8b7000001fd002a
:1058c000c801de00f28620001241780060416100cc
:1058d00003417100020078006fe8b700f20f20006a
:1058e00082816000028720001241780060416100df
:1058f000034171000200780070e8b700c808de00bc
:1059000071c8bf00604060000140700071e8b700de
:10591000218120002087200093210700628220003f
:10592000124178008281fb007282200012417800cf
:105930000281fb004811dd000301710002007800c4
:1059400082822000124178008281fb009282200036
:10595000124178000281fb004811dd000301710053
:105960008200780022872000124178008281fb00ab
:1059700032872000124178000281fb004811dd00cf
:105980000301710002027800428720001241780072
:105990008281fb0052872000124178000281fb00c7
:1059a0004811dd0003017100820278000001be0091
:1059b0000400be00a9210700f20f20008201600050
:1059c000228720001241780060416100034171008c
:1059d0000001fd0072e8b7000001fd00c801de0013
:1059e000328720001241780060416100034171005c
:1059f0000200780073e8b700f20f20008281600097
:105a0000428720001241780060416100034171002b
:105a10000200780074e8b700c808de0075c8bf004f
:105a2000604060000140700075e8b7005ec8bf00cc
:105a30008080fb005fc8bf000080fb004800dd00e5
:105a4000010070008000780062c8bf000081fb0088
:105a500063c8bf000080fb004800dd00020070004a
:105a6000808f5000a7013d0066c8bf008080fb000a
:105a700067c8bf000080fb004800dd000100700027
:105a80008000e900f00f20000081600066c8bf00c0
:105a9000604060000240700066e8b700c808de00a1
:105aa00067c8bf00604060000140700067e8b70051
:105ab00066c8bf008080fb0067c8bf000080fb0095
