:020000040000fa
:080000000001040000000000f3
:020000040000fa
:1000080090010000900100009001000090010000a4
:100018009001000090010000900100009001000094
:100028009001000090010000900100008c53000036
:100038009001000090010000900100009001000074
:1000480090010000f65000002051000090010000cf
:100058009001000090010000900100009001000054
:100068009001000090010000900100009001000044
:100078009001000090010000900100009001000034
:1000880096520000c052000090010000900100004c
:100098009001000090010000900100009001000014
:1000a8009001000090010000900100009001000004
:1000b80090010000900100009001000090010000f4
:1000c80090010000900100009001000090010000e4
:1000d80090010000900100009001000090010000d4
:1000e80090010000900100009001000090010000c4
:0800f8009001000090010000de
:020000040000fa
:1001080090010000900100009001000090010000a3
:100118009001000090010000900100009001000093
:100128009001000090010000900100008c53000035
:100138009001000090010000900100009001000073
:1001480090010000f65000002051000090010000ce
:100158009001000090010000900100009001000053
:100168009001000090010000900100009001000043
:100178009001000090010000900100009001000033
:1001880096520000c052000090010000900100004b
:100198009001000090010000900100009001000013
:1001a8009001000090010000900100009001000003
:1001b80090010000900100009001000090010000f3
:1001c80090010000900100009001000090010000e3
:1001d80090010000900100009001000090010000d3
:1001e80090010000900100009001000090010000c3
:0801f8009001000090010000dd
:020000040000fa
:100200008fd620000eff20000e01880000000000a5
:100210000c00070080562500010020001100070097
:10022000000020000000e000020032000000020098
:1002300000000000ee520200000000000040da0062
:100240000000fe004440a900000020000000e00083
:100250000300320000002000a00188004440a800f4
:100260000000060091018800800078000000eb008b
:1002700015003700e280400032a0b4009101ba00be
:10028000e280400032a0b4009102ba00e280400057
:1002900032a0b4000002eb00472bde00f507b200ed
:1002a000602ce10004003a000059eb008301e900f2
:1002b000fdff3e00040037006128e100010032002c
:1002c0000082eb00040007001101ba000200e00008
:1002d000e8ff3a00000006003159ba008301e90046
:1002e0000c0032002159ba008301e90008003200f5
:1002f0000400e00003003a00e280400032a0b400b5
:10030000f5ff370011d9ba008301e900faff3a007e
:100310008100e800e180400032a0b4000000060047
:100320000040da000000fe00889fbe008a9fbe00e9
:100330008c9fbe00cf8bde004f9bde000204b80016
:100340000306b8008904460060854e000606b80022
:100350000a054600e0854e000606b8008b054600fb
:10036000020eb800890446000a854e00e0854d0063
:10037000030eb8000a0546008b854e00060eb80035
:100380008b054600023eb8000a0546008b854e00ec
:10039000033eb8008b054600023eb8008b054600c0
:1003a0000b00e00002003a000af0a300150039003b
:1003b0000af0a60020003700e18545000b00e000b0
:1003c0001d003a0005f0a600080037000480440034
:1003d00085004d0001f0a600230037004f06be0047
:1003e0004f05be004f04be0000000600048044001c
:1003f00085004d004f06be004f05be004f04be00f5
:100400000000060005f0a700f8ff37000480440054
:1004100085004d00e0854d000b00e00006003a002d
:1004200001f0a700040037004f06be004f05be00d4
:100430004f04be00000006000bf0a7000a003700c2
:10044000f0ff2f00f1ff27004f06be004f05be0052
:100450004f04be00000006004f06be004f05be0060
:100460004f04be000000060000002000010028002c
:100470004f06be004f05be004f04be000000060040
:100480000000e00006003a00020028000110e10030
:1004900003003a008180ea000080ea0000000600c4
:1004a000f2ff2f000192b9000010b9008100420054
:1004b000000006000002eb0001f0a3000300390079
:1004c000f0ff2f00f1ff2f00000006000490e7006e
:1004d000050037000498e700030037000000eb0038
:1004e00011002000000006000480e700060037002d
:1004f000150020000588e700030037000000eb002e
:1005000011002000000006000002eb000480e7005c
:10051000050037000488e700030037000000eb0007
:100520008000eb000000060003f0a6003100370059
:100530000100e000090032006108e10003003a0018
:10054000050028000500e10004003900829fbe007c
:10055000840707004f01be001a0037000100e000c9
:100560000b003a0005d82e000500e100080031001c
:10057000cf08dd00c102de00858070004f00dd0085
:10058000829fbe000b0607004f01be000d00370022
:10059000ce08dd00c202de00858070004e00dd0066
:1005a00061004000e0804800829fbe000106070015
:1005b0004f01be004100de00cf0add0005007000e3
:1005c000c108de000200e00006003a000500280035
:1005d0000328e10003003a008381ea000281ea0077
:1005e00004003700f6ff2f0003b2b9000231b90052
:1005f000830142000002eb000490e7000300370093
:10060000150020000518e70000000600889fbe00c6
:100610008a9fbe008c9fbe00030678008001eb001d
:10062000809fbe003d0907004f01be00809fbe00b5
:100630000300e00048033200240020000498e60094
:10064000030337000300e00003003200044c2d00d8
:100650000410e100fe023100a40520008487470059
:10066000e40120008483570004f02f00f5ff2f00e1
:10067000f6072000ab002000841378008513780073
:10068000861378008b05e9000b00e000faff3c00c0
:100690008f03780082137800831378000002eb0048
:1006a00084137800e4874700829fbe000200780030
:1006b000830078004f89de000004b8000102b80012
:1006c0008904420060854a000202b8000a0542001f
:1006d000e0854a008b054200000ab8008904420008
:1006e0000a854a00e0854d00010ab8000a0542006b
:1006f0008b854a00020ab8008b0542008b05420038
:100700000012b8000a0542008b854a008b054200a2
:100710000408200004044400e0844c0060054d00ff
:10072000e0854d004844de00484add0004007400c6
:10073000c84cde004852dd00848074004855de005d
:10074000485add0004017500801378008113780099
:1007500082137800cf91de000004b8000102b800d7
:100760008904420060854a000202b8000a0542007e
:10077000e0854a008b054200000ab8008904420067
:100780000a854a00e0854d00010ab8000a054200ca
:100790008b854a00020ab8008b0542008b05420097
:1007a0000012b8000a0542008b854a008b05420002
:1007b000040820008484440060054d00e0854d005d
:1007c000c84cde004852dd00048074004855de004d
:1007d000485add008400750048d9de008013780097
:1007e0008113780082137800cf91de000004b800f6
:1007f0000102b8008904420060854a000202b80084
:100800000a054200e0854a008b054200000ab80054
:10081000890442000a854a00e0854d00010ab800bb
:100820000a0542008b854a00020ab8008b05420087
:100830008b0542000012b8000a0542008b854a0071
:100840008b054200040820008484440060054d00ac
:10085000e0854d00c84cde004852dd000480740085
:100860004855de00485add008400750048d9de0096
:10087000801378008113780082137800cf91de0016
:100880000004b8000102b8008904420060854a00f3
:100890000202b8000a054200e0854a008b054200ca
:1008a000000ab800890442000a854a00e0854d002c
:1008b000010ab8000a0542008b854a00020ab80006
:1008c0008b0542008b0542000012b8000a05420069
:1008d0008b854a008b054200040820008484440074
:1008e00060054d00e0854d00c84cde004852dd003b
:1008f000048074004855de00485add00840075000d
:1009000048d9de00801378008113780082137800c4
:100910004f02be00e48757002600200006a8e6002c
:10092000e70137000500e00003003200a6212600a1
:100930000620e100e2013100e4874700849fbe0009
:10094000cf91de000004b8000102b8008904420023
:1009500060854a000202b8000a054200e0854a00ac
:100960008b054200000ab800890442000a854a004b
:10097000e0854d00010ab8000a0542008b854a0057
:10098000020ab8008b0542008b0542000012b80035
:100990000a0542008b854a008b05420004082000ae
:1009a0008484440060054d00e0854d00c84cde00a5
:1009b0004852dd00048074004855de00485add00ce
:1009c0008400750048d9de00801378008113780018
:1009d000821378004f02be00e487570026002000f3
:1009e00006a8e600b60137000500e000030032006b
:1009f00096d222000620e100b1013100e4874700d1
:100a0000849fbe00cf91de000004b8000102b80050
:100a10008904420060854a000202b8000a054200cb
:100a2000e0854a008b054200000ab80089044200b4
:100a30000a854a00e0854d00010ab8000a05420017
:100a40008b854a00020ab8008b0542008b054200e4
:100a50000012b8000a0542008b854a008b0542004f
:100a6000040820008484440060054d00e0854d00aa
:100a7000c84cde004852dd00048074004855de009a
:100a8000485add008400750048d9de0080137800e4
:100a900081137800821378004f02be00e48757006c
:100aa0002600200006a8e600850137000500e000ca
:100ab00003003200865a21000620e1008001310047
:100ac000e4874700849fbe00cf91de000004b80099
:100ad0000102b8008904420060854a000202b800a1
:100ae0000a054200e0854a008b054200000ab80072
:100af000890442000a854a00e0854d00010ab800d9
:100b00000a0542008b854a00020ab8008b054200a4
:100b10008b0542000012b8000a0542008b854a008e
:100b20008b054200040820008484440060054d00c9
:100b3000e0854d00c84cde004852dd0004807400a2
:100b40004855de00485add008400750048d9de00b3
:100b50008013780081137800821378004f02be0062
:100b6000e48757002600200006a8e600540137005d
:100b70000500e00003003200d6a920000620e100b5
:100b80004f013100e4874700849fbe00cf91de0013
:100b90000004b8000102b8008904420060854a00e0
:100ba0000202b8000a054200e0854a008b054200b7
:100bb000000ab800890442000a854a00e0854d0019
:100bc000010ab8000a0542008b854a00020ab800f3
:100bd0008b0542008b0542000012b8000a05420056
:100be0008b854a008b054200040820008484440061
:100bf00060054d00e0854d00c84cde004852dd0028
:100c0000048074004855de00485add0084007500f9
:100c100048d9de00801378008113780082137800b1
:100c20004f02be00e48757002600200006a8e60019
:100c3000230137000500e0000300320016542000b5
:100c400006a0e6001e013700e4874700849fbe002f
:100c5000cf91de000004b8000102b8008904420010
:100c600060854a000202b8000a054200e0854a0099
:100c70008b054200000ab800890442000a854a0038
:100c8000e0854d00010ab8000a0542008b854a0044
:100c9000020ab8008b0542008b0542000012b80022
:100ca0000a0542008b854a008b054200040820009b
:100cb0008484440060054d00e0854d00c84cde0092
:100cc0004852dd00048074004855de00485add00bb
:100cd0008400750048d9de00801378008113780005
:100ce000821378004f02be00e487570026002000e0
:100cf00006a8e600f20037000500e000030032001d
:100d0000d62920000620e100ed003100e4874700ed
:100d1000849fbe00cf91de000004b8000102b8003d
:100d20008904420060854a000202b8000a054200b8
:100d3000e0854a008b054200000ab80089044200a1
:100d40000a854a00e0854d00010ab8000a05420004
:100d50008b854a00020ab8008b0542008b054200d1
:100d60000012b8000a0542008b854a008b0542003c
:100d7000040820008484440060054d00e0854d0097
:100d8000c84cde004852dd00048074004855de0087
:100d9000485add008400750048d9de0080137800d1
:100da00081137800821378004f02be00e487570059
:100db0002600200006a8e600c10037000500e0007c
:100dc00003003200e61420000620e100bc003100e0
:100dd000e4874700849fbe00cf91de000004b80086
:100de0000102b8008904420060854a000202b8008e
:100df0000a054200e0854a008b054200000ab8005f
:100e0000890442000a854a00e0854d00010ab800c5
:100e10000a0542008b854a00020ab8008b05420091
:100e20008b0542000012b8000a0542008b854a007b
:100e30008b054200040820008484440060054d00b6
:100e4000e0854d00c84cde004852dd00048074008f
:100e50004855de00485add008400750048d9de00a0
:100e60008013780081137800821378004f02be004f
:100e7000e48757002600200006a8e600900037000f
:100e80000500e00003003200760a20000620e100a1
:100e90008b003100e4874700849fbe00cf91de00c5
:100ea0000004b8000102b8008904420060854a00cd
:100eb0000202b8000a054200e0854a008b054200a4
:100ec000000ab800890442000a854a00e0854d0006
:100ed000010ab8000a0542008b854a00020ab800e0
:100ee0008b0542008b0542000012b8000a05420043
:100ef0008b854a008b05420004082000848444004e
:100f000060054d00e0854d00c84cde004852dd0014
:100f1000048074004855de00485add0084007500e6
:100f200048d9de008013780081137800821378009e
:100f30004f02be00e48757002600200006a8e60006
:100f40005f0037000500e000030032004605200086
:100f50000620e1005a003100e4874700849fbe006c
:100f6000cf91de000004b8000102b80089044200fd
:100f700060854a000202b8000a054200e0854a0086
:100f80008b054200000ab800890442000a854a0025
:100f9000e0854d00010ab8000a0542008b854a0031
:100fa000020ab8008b0542008b0542000012b8000f
:100fb0000a0542008b854a008b0542000408200088
:100fc0008484440060054d00e0854d00c84cde007f
:100fd0004852dd00048074004855de00485add00a8
:100fe0008400750048d9de008013780081137800f2
:100ff000821378004f02be00e487570026002000cd
:1010000006a8e6002e0037000500e00003003200cd
:10101000a60220000620e10029003100e4874700f5
:10102000849fbe00cf91de000004b8000102b8002a
:101030008904420060854a000202b8000a054200a5
:10104000e0854a008b054200000ab800890442008e
:101050000a854a00e0854d00010ab8000a054200f1
:101060008b854a00020ab8008b0542008b054200be
:101070000012b8000a0542008b854a008b05420029
:10108000040820008484440060054d00e0854d0084
:10109000c84cde004852dd00048074004855de0074
:1010a000485add008400750048d9de0080137800be
:1010b00081137800821378004f02be00e487570046
:1010c0008f037800e683530007037800eb002000cd
:1010d00027017800a701780027027800c814de00f5
:1010e000c81add0005807400481dde00c822dd003e
:1010f0008500750048a1de00001378000113780018
:10110000021378008b05e9000b00e000f0ff3c00c3
:101110008f037800440520008485530004002000dc
:10112000150020000003eb008003eb00ea00200024
:10113000e48747008e1f7800fe002000e68545000a
:10114000100020000a00dd000c00e10038003c0027
:1011500000065600e88747008c9fbe00e6815500d8
:1011600023007800a3007800230178008a9fbe0046
:10117000cf91de000404b8000506b80089044600db
:1011800060854e000606b8000a054600e0854e0060
:101190000706b8008b054600040eb8008904460017
:1011a0000a854e00e0854d00050eb8000a05460090
:1011b0008b854e00060eb8008b0546000416b8005d
:1011c0000a0546008b854e000516b8008b054600c3
:1011d0000416b8008b0546000c0028000c024400e1
:1011e00060824c00e0024d0060834d00cfb3de0012
:1011f0004f05be004f06be00e88757000700e0001d
:1012000004003a000600e00002003a0005f0a300e6
:1012100007003900f4ff2f00f5ff27000003eb0063
:101220008003eb004f077800e4875700b0023700d7
:1012300000000000610555000e07e9000e00e00007
:10124000beff3c004f077800e4875700a802370034
:1012500002007800830078005801200008e0e600d2
:101260004c012000610456000400200015002000fd
:101270000003eb008003eb000c00e0009e02320054
:10128000e48747008e1f78000807e8004f89de00da
:101290000404b8000506b8008904460060854e00c5
:1012a0000606b8000a054600e0854e000706b800ad
:1012b0008b054600040eb800890446000a854e00de
:1012c000e0854d00050eb8000a0546008b854e00ee
:1012d000060eb8008b0546000416b8000a05460045
:1012e0008b854e000516b8008b0546000416b80025
:1012f0008b0546000c0028000c02440060824c0064
:10130000e0024d0060834d00cfb3de000700e00037
:1013100004003a000600e00002003a0005f0a300d5
:1013200007003900f4ff2f00f5ff27000003eb0052
:101330008003eb004f077800e48757006e02370008
:101340000e07e9000e00e000d0ff3c004f077800d8
:10135000e487570068023700a4052000848747000f
:101360008f03780082137800831378000002eb006b
:101370008413780002007800830078004f89de0033
:101380000004b8000102b8008904420060854a00e8
:101390000202b8000a054200e0854a008b054200bf
:1013a000000ab800890442000a854a00e0854d0021
:1013b000010ab8000a0542008b854a00020ab800fb
:1013c0008b0542008b0542000012b8000a0542005e
:1013d0008b854a008b05420061044400e0844c0088
:1013e00060054d00e0854d004140de004f4add00c4
:1013f00004007000c148de004f52dd0084807000a0
:101400004151de004f5add00040171008013780065
:101410008113780082137800cf91de000004b800b9
:101420000102b8008904420060854a000202b80047
:101430000a054200e0854a008b054200000ab80018
:10144000890442000a854a00e0854d00010ab8007f
:101450000a0542008b854a00020ab8008b0542004b
:101460008b0542000012b8000a0542008b854a0035
:101470008b0542000400280084844c0060054d0068
:10148000e0854d004f48de004152dd000400700051
:10149000cf50de00415add00848070004fd9de005d
:1014a000801378008113780082137800cf91de00da
:1014b0000004b8000102b8008904420060854a00b7
:1014c0000202b8000a054200e0854a008b0542008e
:1014d000000ab800890442000a854a00e0854d00f0
:1014e000010ab8000a0542008b854a00020ab800ca
:1014f0008b0542008b0542000012b8000a0542002d
:101500008b854a008b0542000400280084844c002f
:1015100060054d00e0854d004f48de004152dd0082
:1015200004007000cf50de00415add00848070005e
:101530004fd9de0080137800811378008213780081
:10154000cf91de000004b8000102b8008904420017
:1015500060854a000202b8000a054200e0854a00a0
:101560008b054200000ab800890442000a854a003f
:10157000e0854d00010ab8000a0542008b854a004b
:10158000020ab8008b0542008b0542000012b80029
:101590000a0542008b854a008b05420004002800a2
:1015a00084844c0060054d00e0854d004f48de000e
:1015b0004152dd0004007000cf50de00415add00d2
:1015c000848070004fd9de0080137800811378008a
:1015d00082137800cf91de000004b8000102b80049
:1015e0008904420060854a000202b8000a054200f0
:1015f000e0854a008b054200000ab80089044200d9
:101600000a854a00e0854d00010ab8000a0542003b
:101610008b854a00020ab8008b0542008b05420008
:101620000012b8000a0542008b854a008b05420073
:101630000400280084844c0060054d00e0854d00c6
:101640004f48de004152dd0004007000cf50de0044
:10165000415add00848070004fd9de00801378008d
:101660008113780082137800cf91de000004b80067
:101670000102b8008904420060854a000202b800f5
:101680000a054200e0854a008b054200000ab800c6
:10169000890442000a854a00e0854d00010ab8002d
:1016a0000a0542008b854a00020ab8008b054200f9
:1016b0008b0542000012b8000a0542008b854a00e3
:1016c0008b0542000400280084844c0060054d0016
:1016d000e0854d004f48de004152dd0004007000ff
:1016e000cf50de00415add00848070004fd9de000b
:1016f000801378008113780082137800cf91de0088
:101700000004b8000102b8008904420060854a0064
:101710000202b8000a054200e0854a008b0542003b
:10172000000ab800890442000a854a00e0854d009d
:10173000010ab8000a0542008b854a00020ab80077
:101740008b0542008b0542000012b8000a054200da
:101750008b854a008b0542000400280084844c00dd
:1017600060054d00e0854d004f48de004152dd0030
:1017700004007000cf50de00415add00848070000c
:101780004fd9de008013780081137800821378002f
:10179000cf91de000004b8000102b80089044200c5
:1017a00060854a000202b8000a054200e0854a004e
:1017b0008b054200000ab800890442000a854a00ed
:1017c000e0854d00010ab8000a0542008b854a00f9
:1017d000020ab8008b0542008b0542000012b800d7
:1017e0000a0542008b854a008b0542000400280050
:1017f00084844c0060054d00e0854d004f48de00bc
:101800004152dd0004007000cf50de00415add007f
:10181000848070004fd9de00801378008113780037
:1018200082137800cf91de000004b8000102b800f6
:101830008904420060854a000202b8000a0542009d
:10184000e0854a008b054200000ab8008904420086
:101850000a854a00e0854d00010ab8000a054200e9
:101860008b854a00020ab8008b0542008b054200b6
:101870000012b8000a0542008b854a008b05420021
:101880000400280084844c0060054d00e0854d0074
:101890004f48de004152dd0004007000cf50de00f2
:1018a000415add00848070004fd9de00801378003b
:1018b0008113780082137800cf91de000004b80015
:1018c0000102b8008904420060854a000202b800a3
:1018d0000a054200e0854a008b054200000ab80074
:1018e000890442000a854a00e0854d00010ab800db
:1018f0000a0542008b854a00020ab8008b054200a7
:101900008b0542000012b8000a0542008b854a0090
:101910008b0542000400280084844c0060054d00c3
:10192000e0854d004f48de004152dd0004007000ac
:10193000cf50de00415add00848070004fd9de00b8
:10194000801378008113780082137800cf91de0035
:101950000004b8000102b8008904420060854a0012
:101960000202b8000a054200e0854a008b054200e9
:10197000000ab800890442000a854a00e0854d004b
:10198000010ab8000a0542008b854a00020ab80025
:101990008b0542008b0542000012b8000a05420088
:1019a0008b854a008b0542000400280084844c008b
:1019b00060054d00e0854d004f48de004152dd00de
:1019c00004007000cf50de00415add0084807000ba
:1019d0004fd9de00801378008113780082137800dd
:1019e000cf91de000004b8000102b8008904420073
:1019f00060854a000202b8000a054200e0854a00fc
:101a00008b054200000ab800890442000a854a009a
:101a1000e0854d00010ab8000a0542008b854a00a6
:101a2000020ab8008b0542008b0542000012b80084
:101a30000a0542008b854a008b05420004002800fd
:101a400084844c0060054d00e0854d004f48de0069
:101a50004152dd0004007000cf50de00415add002d
:101a6000848070004fd9de008013780081137800e5
:101a700082137800cf91de000004b8000102b800a4
:101a80008904420060854a000202b8000a0542004b
:101a9000e0854a008b054200000ab8008904420034
:101aa0000a854a00e0854d00010ab8000a05420097
:101ab0008b854a00020ab8008b0542008b05420064
:101ac0000012b8000a0542008b854a008b054200cf
:101ad0000400280084844c0060054d00e0854d0022
:101ae0004f48de004152dd0004007000cf50de00a0
:101af000415add00848070004fd9de0080137800e9
:101b00008113780082137800cf91de000004b800c2
:101b10000102b8008904420060854a000202b80050
:101b20000a054200e0854a008b054200000ab80021
:101b3000890442000a854a00e0854d00010ab80088
:101b40000a0542008b854a00020ab8008b05420054
:101b50008b0542000012b8000a0542008b854a003e
:101b60008b0542000400280084844c0060054d0071
:101b7000e0854d004f48de004152dd00040070005a
:101b8000cf50de00415add00848070004fd9de0066
:101b90008013780081137800821378008f03780017
:101ba000e683530007037800eb002000270178004c
:101bb000a701780027027800cf14de00c11add00eb
:101bc000058074004f1dde00c122dd008500750018
:101bd0004fa1de0000137800011378000213780093
:101be0008b05e9000b00e000f0ff3c008f0378005c
:101bf00044052000848553000400200015002000c7
:101c00000003eb008003eb00ea002000e4874700bc
:101c10008e1f7800fe002000e685450010002000a1
:101c20000a00dd000c00e1002b003c00000656001d
:101c3000e6815500e88747008c9fbe0023007800ae
:101c4000a3007800230178008a9fbe00cf91de00b8
:101c50000404b8000506b8008904460060854e00fb
:101c60000606b8000a054600e0854e000706b800e3
:101c70008b054600040eb800890446000a854e0014
:101c8000e0854d00050eb8000a0546008b854e0024
:101c9000060eb8008b0546000416b8000a0546007b
:101ca0008b854e000516b8008b0546000416b8005b
:101cb0008b0546000c0028000c02440060824c009a
:101cc000e0024d0060834d00cfb3de004f05be0043
:101cd0004f06be00e8875700610555000e07e90072
:101ce0000e00e000ccff3c004f077800e48757006f
:101cf000a2052000828757004f00be004f89de00fa
:101d00000404b8000506b8008904460060854e004a
:101d10000606b8000a054600e0854e000706b80032
:101d20008b054600040eb800890446000a854e0063
:101d3000e0854d00050eb8000a0546008b854e0073
:101d4000060eb8008b0546000416b8000a054600ca
:101d50008b854e000516b8008b0546000416b800aa
:101d60008b0546000400280004044400e0844c0075
:101d700060054d00e0854d00090078008a0078007c
:101d80000b00e00002003a000af0a3000500390051
:101d9000f0ff2f00f1ff270002003700a20520000e
:101da000828757004f06be004f05be004f04be009d
:101db0000000060000027800810278000000e000c8
:101dc00010003a000200280081017800000028007d
:101dd000cf80de000218e70000000600f2ff2700b7
:101de000000028008000eb000218e7000000060059
:101df000f0ff2f00f1ff27000001eb000218e700c1
:101e000000000600889fbe008a9fbe008c9fbe0017
:101e100004007800850078001800200001f0a3007d
:101e200004003900f8ff2f0001c2b9000040b900da
:101e300081004200881f7800809fbe008181cf0012
:101e40000300e00004003a000118e700030120004d
:101e50000081cf0083014100e28151007018e10050
:101e600008003c000300e00009003200708111000e
:101e70000202de008308dd00848070000300dd00c4
:101e800003003700708151008200dd000000eb008c
:101e9000831f7800050028000002eb0000015200bb
:101ea00081815a00858041000414b8000516b800ed
:101eb0008904460060854e008005eb00040eb800e2
:101ec000890446000a854e00e0854d00050eb800e5
:101ed0000a0546008b854e004f48de00c150dd00ec
:101ee000010370004f50de00c158dd008103700017
:101ef0000214b8000316b8008904460060854e003d
:101f00008005eb00890446000a854e00e0854d00ff
:101f1000031eb8000a0546008b854e004f48de00c0
:101f2000c150dd00010170004f50de00c158dd00de
:101f30008101700000002800808041000614b80074
:101f40000716b8008904460060854e008005eb0046
:101f5000060eb800890446000a854e00e0854d0053
:101f6000070eb8000a0546008b854e004f48de007c
:101f7000c150dd00010370004f50de00c158dd008c
:101f8000810370000214b8000316b80089044600eb
:101f900060854e008005eb00890446000a854e00ee
:101fa000e0854d00031eb8000a0546008b854e00f3
:101fb0004f48de00c150dd00010170004f50de00cf
:101fc000c158dd00810170000000280080804100c0
:101fd0000614b8000716b8008904460060854e0054
:101fe0008005eb00060eb800890446000a854e0005
:101ff000e0854d00070eb8000a0546008b854e00af
:102000004f48de00c150dd00010370004f50de007c
:10201000c158dd00810370000214b8000316b80037
:102020008904460060854e008005eb008904460067
:102030000a854e00e0854d00031eb8000a054600e3
:102040008b854e004f48de00c150dd00010170005d
:102050004f50de00c158dd008101700000002800f3
:10206000808041000614b8000716b80089044600b5
:1020700060854e008005eb00060eb800890446001e
:102080000a854e00e0854d00070eb8000a0546009f
:102090008b854e004f48de00c150dd00010370000b
:1020a0004f50de00c158dd00810370000214b800fb
:1020b0000316b8008904460060854e008005eb00d9
:1020c000890446000a854e00e0854d00031eb800d5
:1020d0000a0546008b854e004f48de00c150dd00ea
:1020e000010170004f50de00c158dd008101700019
:1020f00000002800808041000614b8000716b800d0
:102100008904460060854e008005eb00060eb8008d
:10211000890446000a854e00e0854d00070eb80090
:102120000a0546008b854e004f48de00c150dd0099
:10213000010370004f50de00c158dd0081037000c4
:102140000214b8000316b8008904460060854e00ea
:102150008005eb00890446000a854e00e0854d00ad
:10216000031eb8000a0546008b854e004f48de006e
:10217000c150dd00010170004f50de00c158dd008c
:102180008101700000002800808041000614b80022
:102190000716b8008904460060854e008005eb00f4
:1021a000060eb800890446000a854e00e0854d0001
:1021b000070eb8000a0546008b854e004f48de002a
:1021c000c150dd00010370004f50de00c158dd003a
:1021d000810370000214b8000316b8008904460099
:1021e00060854e008005eb00890446000a854e009c
:1021f000e0854d00031eb8000a0546008b854e00a1
:102200004f48de00c150dd00010170004f50de007c
:10221000c158dd008101700000002800808041006d
:102220000614b8000716b8008904460060854e0001
:102230008005eb00060eb800890446000a854e00b2
:10224000e0854d00070eb8000a0546008b854e005c
:102250004f48de00c150dd00010270004f50de002b
:10226000c158dd0081027000cf017800120020000b
:102270007018e10004003c00f08011008110de00c5
:102280000310dd0003003700f08051008110dd00f5
:102290000000eb004f89de00820178000404b800e2
:1022a0000506b8008904460060854e00040eb8009b
:1022b000890446000a854e00050eb8000a0546004e
:1022c0000416b8000a054600e00546004f02be00ad
:1022d0004e22de00422edd000c027200ce2ade000d
:1022e000570020000500e00002003a000720e1004e
:1022f000050035000700240007044400e0844c007a
:1023000060054d00e0854d004f40de00414add0094
:1023100004007000cf48de004152dd008480700070
:102320004f51de00415add00040171000200e0005f
:1023300002003a0001f0a30002003900f0ff2f0074
:10234000f1ff27004f04780001c2b9000040b90036
:10235000810042004f06be004f05be004f04be0084
:102360000000060000027800810278000000e00012
:1023700010003a000200280081017800e0ff2f00e1
:10238000cf80de000218e70000000600f2ff270001
:1023900020002000cf80de000218e70000000600c9
:1023a000f0ff2f00f1ff27000001eb000218e7000b
:1023b000000006000400780085007800889fbe00b9
:1023c0001800200001f0a30004003900f8ff2f00de
:1023d00001c2b9000040b90081004200881f7800a6
:1023e00000017800810178000300e00014003a0049
:1023f000140020000220e10007003a00f0ff2f0047
:10240000f1ff270001c2b9000040b900810042007d
:102410004f04be0000000600240020000220e1005e
:1024200007003a00f0ff2f00f1ff270001c2b900ba
:102430000040b900810042004f04be0000000600c9
:102440008181cf000300e00004003a000118e7009a
:10245000030120000081cf0083014100e28151008f
:102460007018e10005003c00708111000202de00de
:102470008308dd0084807000020037007081510005
:102480008200dd0004002800810252006118e10092
:10249000830034008a9fbe008c9fbe000000220093
:1024a00006002800050343000625b8004f55de004e
:1024b000c15ddd000b027500052db800000545006b
:1024c000e0854d004e55de00c25ddd008b027500db
:1024d000e08342000725b8006126b9008c854500dd
:1024e0000b027800052db800e1854500c1dade0059
:1024f0000000240006002800850343000725b800db
:102500004230de0000054500e0854d004f55de00fd
:10251000c15ddd000b027500052db80000e0230051
:1025200000054500e0854d004f55de00c15ddd0032
:102530008b027500850343000725b8004f52de006b
:10254000415cdd00080272004f5cde0000002400e8
:10255000052db80000054500e0854d004f55de0013
:10256000c15ddd008b02750085034300043db800aa
:1025700008beb9008c8545004f52de00415cdd008d
:10258000080272004f5cde00052db8000005450012
:10259000e0854d004f55de00c15ddd008b0275000a
:1025a00085034300043db80008beb9008c85450092
:1025b0004f52de00415cdd00080272004f5cde001d
:1025c000052db80000054500e0854d004f55de00a3
:1025d000c15ddd008b02750085034300043db8003a
:1025e00008beb9008c8545004f52de00415cdd001d
:1025f00008027200cf5ade00120020007018e100bd
:1026000004003c00f08011008110de000310dd00aa
:1026100003003700f08051008110dd000000eb0066
:102620004f89de00820178004fabde008603780020
:102630000404b8000506b8008904460060854e0011
:102640000606b8000a054600040eb80089044600d4
:102650000a854e00050eb8000a0546000416b800ab
:102660000a0546008b0546004e40de00424add006a
:1026700004007000ce48de004252dd00848070000d
:102680004f06be004f05be004f04780001c2b900de
:102690000040b900810042004f04be000000060067
:1026a0000300e0007c0034008a9fbe008c9fbe00c7
:1026b0000000220006002800850343000725b8001b
:1026c0004f55de00c15ddd000b027500052db80021
:1026d00000054500e0854d004e55de00c25ddd0081
:1026e0008b027500e08342000725b8006126b9001f
:1026f0008c8545000b027800052cb80006044400c8
:10270000e0844c00c1cade004100dd000600280064
:10271000850343000725b8004f55de00c15ddd008d
:102720000b027500052db80000054500e0854d0041
:102730004f55de00c15ddd008b027500850343004f
:102740000725b8004f55de00c15ddd000b027500a6
:10275000052db80000054500e0854d004f55de0011
:10276000c15ddd008b027500850343000725b800bd
:102770004f52de00415cdd00080272004f5cde005b
:10278000052db80000054500e0854d004f55de00e1
:10279000c15ddd008b02750085034300043db80078
:1027a00008beb9008c8545004f52de00415cdd005b
:1027b000080272004f5cde00052db80000054500e0
:1027c000e0854d004f55de00c15ddd008b027500d8
:1027d00085034300043db80008beb9008c85450060
:1027e0004f52de00415cdd0008027200cf5ade006d
:1027f000120020007018e10004003c00f08011007d
:102800008110de000310dd0003003700f08051006e
:102810008110dd000000eb004f89de0082017800ae
:102820004fabde00860378000404b8000506b8004c
:102830008904460060854e000606b8000a05460079
:10284000040eb800890446000a854e00050eb80043
:102850000a0546000416b8000a0546008b05460026
:102860004e40de00424add0004007000ce48de002b
:102870004252dd00848070004f06be004f05be004e
:102880004f04780001c2b9000040b9008100420045
:102890004f04be00000006008a9fbe008c9fbe0051
:1028a0000000240006002800850343000725b80027
:1028b0004f55de00c15ddd000b027500052db8002f
:1028c00000054500e0854d004f55de00c15ddd008f
:1028d0008b027500850343000725b8004f55de00c5
:1028e000c15ddd000b027500052db8000005450037
:1028f000e0854d004f55de00c15ddd008b027500a7
:10290000850343000725b8004f55de00c15ddd009b
:102910000b027500052db80000054500e0854d004f
:102920004f55de00c15ddd008b027500850343005d
:102930000725b8004f55de00c15ddd000b027500b4
:10294000052db80000054500e0854d004f55de001f
:10295000c15ddd008b0275000004eb0085034300c0
:102960000725b8004f52de00415cdd00080272000e
:102970004f5cde00052db80000054500e0854d00e8
:102980004f55de00c15ddd008b02750085034300fd
:10299000043db80008beb9008c8545004f52de00ea
:1029a000415cdd00080272004f5cde00052db800be
:1029b00000054500e0854d004f55de00c15ddd009e
:1029c0008b02750085034300043db80008beb900c2
:1029d0008c8545004f52de00415cdd00080272002c
:1029e000cf5ade00120020007018e10004003c0005
:1029f000f08011008110de000310dd0003003700bd
:102a0000f08051008110dd000000eb004f89de00f6
:102a1000820178004fabde00860378000404b80022
:102a20000506b8008904460060854e000606b80019
:102a30000a054600040eb800890446000a854e00c7
:102a4000050eb8000a0546000416b8000a0546003f
:102a50008b0546004e40de00424add000400700057
:102a6000ce48de004252dd00848070004f06be007a
:102a70004f05be004f04780001c2b9000040b90004
:102a8000810042004f04be000000060000800000ec
:102a900000000000f15b000001000000cdb100006b
:102aa00003000000f30a00000a000000904c000040
:102ab0001b000000e23400004a000000e3b6000002
:102ac000c90000000b510000240200009f7a0000a2
:102ad000d2050000be8a0000d30f00009f3b00001b
:102ae000052b000024120000f1740000000000001b
:102af0002d5e0000a5220000bf0c0000b004000005
:102b0000ba010000a20000003c0000001600000016
:102b1000080000000300000001000000889fbe00c4
:102b20008a9fbe008c9fbe0001047800829fbe0079
:102b300000017800810178000300e0000500340006
:102b40004112de00cf1add0004817200c199de005f
:102b5000040037000500280003abb9000229b800c3
:102b6000830143000002eb000380cf000000e0007f
:102b700004003a000300e700000120008280cf003b
:102b80000080400062005000f00010000112de00e2
:102b90008019dd00830172000011dd0004002800af
:102ba00004825100c113de00cf22dd008580730056
:102bb0008402780041a2de004f11de00c12add0050
:102bc0008502710005abb9000600220007b1b9000b
:102bd0008280500003025a0005bbb90056552100ff
:102be00007b1b9008280400003024a0005bbb9006a
:102bf0000600210007b1b9008280500003025a008c
:102c000005bbb900d6cc200007b1b90082804000d6
:102c100003024a0005bbb900b6aa200007b1b900fb
:102c20008280500003025a0005bbb9005692200072
:102c300007b1b9008280400003024a0005bbb90019
:102c40000680200007b1b9008280500003025a00bc
:102c500005bbb900c671200007b1b90082804000f1
:102c600003024a0005bbb9006666200007b1b9003f
:102c70008280500003025a0005bbb900165d200097
:102c800007b1b9008280400003024a00c508de0097
:102c9000cb22dd0005817000c5a1de006000e100ef
:102ca0000b003a000800e00004003400e562210057
:102cb000f42f240004014100858149004910de0001
:102cc000c71add0005007000c998de00fd0037005e
:102cd0006100e10010003a002516200004432e0098
:102ce00004015100858159000800e000050034000e
:102cf000e5622100f42f2400040141008581490090
:102d00004110de004910de00c71add00050070002a
:102d1000c998de00eb0037006200e1000f003a00c6
:102d2000552c200004862c00040151008581590097
:102d30000800e00004003400e5622100f42f2400c4
:102d400004014100858149004910de00c71add00f9
:102d500005007000c998de00da0037006300e1006a
:102d60000f003a008542200004c92a0004015100e6
:102d7000858159000800e00004003400e56221006c
:102d8000f42f240004014100858149004910de0030
:102d9000c71add0005007000c998de00c9003700c1
:102da0006400e1000f003a00b5582000040c29002f
:102db00004015100858159000800e000040034003e
:102dc000e5622100f42f24000401410085814900bf
:102dd0004910de00c71add0005007000c998de004a
:102de000b80037006500e1000f003a00e56e2000f2
:102df000044f270004015100858159000800e000bc
:102e000004003400e5622100f42f24000401410095
:102e1000858149004910de00c71add0005007000f9
:102e2000c998de00a70037006600e1000f003a00f5
:102e30001585200004922500040151008581590068
:102e40000800e00004003400e5622100f42f2400b3
:102e500004014100858149004910de00c71add00e8
:102e600005007000c998de00960037006700e10099
:102e70000f003a00459b2000f4d4230004015100c8
:102e8000858159000800e00004003400e56221005b
:102e9000f42f240004014100858149004910de001f
:102ea000c71add0005007000c998de0085003700f4
:102eb0006800e1000f003a0075b12000e41722001d
:102ec00004015100858159000800e000040034002d
:102ed000e5622100f42f24000401410085814900ae
:102ee0004910de00c71add0005007000c998de0039
:102ef000740037006900e1000f003a00a5c7200008
:102f0000f45a200004015100858159000800e000b6
:102f100004003400e5622100f42f24000401410084
:102f2000858149004910de00c71add0005007000e8
:102f3000c998de00630037006a00e1000f003a0024
:102f4000c5dd2000f49d2e0004015100858159004b
:102f50000800e00004003400e5622100f42f2400a2
:102f600004014100858149004910de00c71add00d7
:102f700005007000c998de00520037006b00e100c8
:102f80000f003a00f5f32000f4e02c00040151009a
:102f9000858159000800e00004003400e56221004a
:102fa000f42f240004014100858149004910de000e
:102fb000c71add0005007000c998de004100370027
:102fc0006c00e1000f003a00250a2100f4232b00d9
:102fd00004015100858159000800e000040034001c
:102fe000e5622100f42f240004014100858149009d
:102ff0004910de00c71add0005007000c998de0028
:10300000300037006d00e1000f003a00552021002c
:10301000f466290004015100858159000800e00090
:1030200004003400e5622100f42f24000401410073
:10303000858149004910de00c71add0005007000d7
:10304000c998de001f0037006e00e1000f003a0053
:1030500085362100f4a9270004015100858159001b
:103060000800e00004003400e5622100f42f240091
:1030700004014100858149004910de00c71add00c6
:1030800005007000c998de000e003700b54c210025
:10309000e4ec250004015100858159000800e0009e
:1030a00004003400e5622100f42f240004014100f3
:1030b000858149004910de00c71add000500700057
:1030c000c998de004f02be004f89de004fabde0024
:1030d0000404b8000506b8008904460060854e0067
:1030e0000606b8000a054600e0854e008b0546003e
:1030f000040eb800890446000a854e00e0854d00a4
:10310000050eb8000a0546008b854e00060eb80075
:103110008b0546000416b8000a0546008b854e0054
:103120000516b8008b0546000416b8008b0546004e
:103130004242de00ce49dd0003047200c24ade00d6
:10314000ce51dd00838472004253de00ce59dd0093
:1031500003057300c2ddde000bf0a3000e0031009a
:10316000b5962900f49d2d000802520089825a006c
:1031700062031d00e0835d0007f0a3001600390024
:10318000f0ff2f00f1ff27004f06be004f05be00e5
:103190004f04be000000060034a22100b5dd20006f
:1031a000d6ff2f00f7ff2f000402540085825c0039
:1031b00006035d0087835d0007f0a3000600390069
:1031c0008000eb000000eb004f06be004f05be0084
:1031d0004f04be00000006004e4ade00c252dd0071
:1031e000048272008002eb0004f0a70015002000aa
:1031f0000001eb000590e7000402ea00849fbe0096
:1032000004aab90009e0a10009f0a1000003eb0045
:10321000070024000803430089834b00080078005e
:10322000890078004f89de000004b8000106b8006c
:103230008904460060854e000206b8000a05460073
:103240008c854e00000eb800890446000a854e00a9
:10325000e0854d00010eb8000a0546008b854e0042
:10326000020eb8008b0546008b0546000016b8001c
:103270000a0546008b854e008b0546004e4ade004f
:10328000c254dd0004827400ce52de00c25cdd0058
:1032900085827400080024004fa9de008005eb0041
:1032a0000446b800e004460060854e00e0854d000d
:1032b0000546b8000a0546008b854e000246b80058
:1032c0008b054600020024008284440060054d0006
:1032d000e0854d004f49de00c154dd0002817400dd
:1032e000cf51de00c15cdd00838174000203430026
:1032f00083834b004f89de00cfa9de000404b800b1
:103300000506b8008904460060854e000306b80033
:103310000a054600e0854e000306b8008b0546000e
:10332000040eb800890446000a854e00e0854d0071
:10333000050eb8000a0546008b854e00030eb80046
:103340008b0546000416b8000a0546008b854e0022
:103350000516b8008b0546000416b8008b0546001c
:10336000e184440060054d00e0854d004e4ade00da
:10337000c254dd0004827400ce52de00c25cdd0067
:1033800085827400b3aa2a000324b800a8aa2000ea
:103390000826b8008904460060854e008005eb00d1
:1033a000032eb800890446000a854e00e0854d00d2
:1033b000082eb8000a0546008b854e004fa9de0096
:1033c0000316b8000a0546008b854e000816b800a3
:1033d0008b0546000316b8008b0546000800220046
:1033e0008884440060054d00e0854d004e49de00b4
:1033f000c254dd0002817400ce51de00c25cdd00eb
:10340000838174000203430083834b004f89de00f5
:10341000cfa9de000404b8000506b8008904460000
:1034200060854e000306b8000a054600e0854e00a0
:103430000306b8008b054600040eb8008904460058
:103440000a854e00e0854d00050eb8000a054600cd
:103450008b854e00030eb8008b0546000416b8009d
:103460000a0546008b854e000516b8008b05460000
:103470000416b8008b054600e184440060054d0049
:10348000e0854d004e4ade00c254dd000482740027
:10349000ce52de00c25cdd0085827400b3aa2a0031
:1034a0000324b800a82a20000826b8008904460092
:1034b00060854e008005eb00032eb80089044600ad
:1034c0000a854e00e0854d00082eb8000a0546002a
:1034d0008b854e004fa9de000316b8000a05460092
:1034e0008b854e000816b8008b0546000316b80001
:1034f0008b054600080022008884440060054d00ca
:10350000e0854d004e49de00c254dd0002817400aa
:10351000ce51de00c25cdd008381740002034300f3
:1035200083834b004f89de00cfa9de000404b8007e
:103530000506b8008904460060854e000306b80001
:103540000a054600e0854e000306b8008b054600dc
:10355000040eb800890446000a854e00e0854d003f
:10356000050eb8000a0546008b854e00030eb80014
:103570008b0546000416b8000a0546008b854e00f0
:103580000516b8008b0546000416b8008b054600ea
:103590004e4ade00c254dd0004827400ce52de00ca
:1035a000c25cdd0085827400938828000324b80083
:1035b000880820000826b8008904460060854e006f
:1035c0008005eb00032eb800890446000a854e00f2
:1035d000e0854d00082eb8000a0546008b854e0098
:1035e0004fa9de000316b8000a0546008b854e0081
:1035f0000816b8008b0546000316b8008b05460078
:10360000080022008884440060054d00e0854d00dc
:103610004e49de00c254dd0002817400ce51de004e
:10362000c25cdd00838174000203430083834b008e
:103630004f89de00cfa9de000404b8000506b800fb
:103640008904460060854e000306b8000a0546005e
:10365000e0854e000306b8008b054600040eb80056
:10366000890446000a854e00e0854d00050eb8002d
:103670000a0546008b854e00030eb8008b054600f8
:103680000416b8000a0546008b854e000516b800e2
:103690008b0546000416b8008b0546004e4ade0036
:1036a000c254dd0004827400ce52de00c25cdd0034
:1036b00085827400c3162c000324b8006801200022
:1036c0000826b8008904460060854e008005eb009e
:1036d000032eb800890446000a854e00e0854d009f
:1036e000082eb8000a0546008b854e004fa9de0063
:1036f0000316b8000a0546008b854e000816b80070
:103700008b0546000316b8008b0546000800220012
:103710008884440060054d00e0854d004e49de0080
:10372000c254dd0002817400ce51de00c25cdd00b7
:10373000838174000203430083834b004f89de00c2
:10374000cfa9de000404b8000506b80089044600cd
:1037500060854e000306b8000a054600e0854e006d
:103760000306b8008b054600040eb8008904460025
:103770000a854e00e0854d00050eb8000a0546009a
:103780008b854e00030eb8008b0546000416b8006a
:103790000a0546008b854e000516b8008b054600cd
:1037a0000416b8008b0546004e4ade00c254dd0008
:1037b00004827400ce52de00c25cdd00858274009b
:1037c000430324000324b800380020000826b80072
:1037d0008904460060854e008005eb00032eb8008a
:1037e000890446000a854e00e0854d00082eb80089
:1037f0000a0546008b854e004fa9de000316b8006f
:103800000a0546008b854e000816b8008b05460059
:103810000316b8008b054600080022008884440087
:1038200060054d00e0854d004e49de00c254dd00cc
:1038300002817400ce51de00c25cdd008381740021
:103840000203430083834b004f89de00cfa9de00d3
:103850000404b8000506b8008904460060854e00df
:103860000306b8000a054600e0854e000306b800ce
:103870008b054600040eb800890446000a854e00f8
:10388000e0854d00050eb8000a0546008b854e0008
:10389000030eb8008b0546000416b8000a05460062
:1038a0008b854e000516b8008b0546000416b8003f
:1038b0008b0546004e4ade00c254dd0004827400cf
:1038c000ce52de00c25cdd0085827400738026006b
:1038d0000324b8008005eb00032eb800e004460086
:1038e00060854e00e0854d004fa9de000316b8004c
:1038f0000a0546008b854e000316b8008b0546006e
:10390000080022008884440060054d00e0854d00d9
:103910004e49de00c254dd0002817400ce51de004b
:10392000c25cdd00838174000203430083834b008b
:103930004f89de00cfa9de000404b8000506b800f8
:103940008904460060854e000306b8000a0546005b
:10395000e0854e000306b8008b054600040eb80053
:10396000890446000a854e00e0854d00050eb8002a
:103970000a0546008b854e00030eb8008b054600f5
:103980000416b8000a0546008b854e000516b800df
:103990008b0546000416b8008b0546004e4ade0033
:1039a000c254dd0004827400ce52de00c25cdd0031
:1039b00085827400f3b820000324b8008005eb0072
:1039c000032eb800e004460060854e00e0854d00ff
:1039d0004fa9de000316b8000a0546008b854e008d
:1039e0000316b8008b0546000800220088844400b6
:1039f00060054d00e0854d004e49de00c254dd00fb
:103a000002817400ce51de00c25cdd00838174004f
:103a10000203430083834b004f89de00cfa9de0001
:103a20000404b8000506b8008904460060854e000d
:103a30000306b8000a054600e0854e000306b800fc
:103a40008b054600040eb800890446000a854e0026
:103a5000e0854d00050eb8000a0546008b854e0036
:103a6000030eb8008b0546000416b8000a05460090
:103a70008b854e000516b8008b0546000416b8006d
:103a80008b0546004e4ade00c254dd0004827400fd
:103a9000ce52de00c25cdd008582740083122000fd
:103aa0000324b8008005eb00032eb800e0044600b4
:103ab00060854e00e0854d004fa9de000316b8007a
:103ac0000a0546008b854e000316b8008b0546009c
:103ad000080022008884440060054d00e0854d0008
:103ae0004e49de00c254dd0002817400ce51de007a
:103af000c25cdd00838174000203430083834b00ba
:103b00004f89de00cfa9de000404b8000506b80026
:103b10008904460060854e000306b8000a05460089
:103b2000e0854e000306b8008b054600040eb80081
:103b3000890446000a854e00e0854d00050eb80058
:103b40000a0546008b854e00030eb8008b05460023
:103b50000416b8000a0546008b854e000516b8000d
:103b60008b0546000416b8008b0546004e4ade0061
:103b7000c254dd0004827400ce52de00c25cdd005f
:103b800085827400b30120000324b8008005eb0097
:103b9000032eb800e004460060854e00e0854d002d
:103ba0004fa9de000316b8000a0546008b854e00bb
:103bb0000316b8008b0546000800220088844400e4
:103bc00060054d00e0854d004e49de00c254dd0029
:103bd00002817400ce51de00c25cdd00838174007e
:103be0000203430083834b004f02be000500e00048
:103bf00030003a004222dd000000200090018800e1
:103c000061542100848040003100ba009100ba0064
:103c10004f89de0006027800870278000003eb007f
:103c20000404b8000506b8008904460060854e000b
:103c30000606b8000a054600e0854e008b054600e2
:103c4000040eb800890446000a854e00e0854d0048
:103c5000050eb8000a0546008b854e00060eb8001a
:103c60008b0546000416b8000a0546008b854e00f9
:103c70000516b8008b0546008b05460004002100a0
:103c80008484440060054d00e0854d00cd4cde008d
:103c90004352dd00048074004d55de00435add00c0
:103ca000840075004f06be004f05be004f04be00e5
:103cb000000006004122dd00000020009001880085
:103cc00061572100848040001100ba00060278008c
:103cd000870278000003eb000404b8000506b80072
:103ce0008904460060854e000606b8000a054600b5
:103cf000e0854e008b0546008b054600ce4cde006d
:103d00004252dd00048074004e55de00425add0050
:103d1000840075004f06be004f05be004f04be0074
:103d200000000600889fbe008a9fbe008c1f78009e
:103d3000c8000700cf00330003866c006450e10028
:103d40002e0032006420e100330032006150e100b7
:103d50002f0032006120e1003100320085855500de
:103d6000eb07b00009002000080420000500370020
:103d70000804440089844c000a0031000603430013
:103d800087834b000001530081815b00f8ff330003
:103d90000203be000800a0000804440089844c000f
:103da000f6ff3900c639dd008301730001003200df
:103db000130020008904d1000884d3000998a300cf
:103dc000050032000800a7000300a0008904d1000c
:103dd0000884d3008b05e8008904d1000884d3004f
:103de0000001eb000281d2005f00070001f0a1009a
:103df0000cf0a70001f0a000a70037006420e1004c
:103e0000a90032000801be000200be00f7ff370023
:103e10006120e100a40032006000b800f3ff370029
:103e20000000200001f82700f0ff37000001be006d
:103e3000730007000470a70003f0a1006509b1003a
:103e4000160032000d0035006828e100060035003c
:103e5000f0ff2f00f1ff27000300e00013003b00fc
:103e6000010028000000050000004000818048009b
:103e70008502e900fcff3a0008003700f88f420095
:103e800002003c008000eb00000005008100d10032
:103e90000080d3008502e800fcff3a000300e00048
:103ea00002003b0060001000e080180000000600e7
:103eb000881f7800010478000100e00005003d0043
:103ec00060001000e080180002003b0001f02c00b0
:103ed000030037000400070008f0a70001f0a0006d
:103ee0004f04780000000600889fbe008a9fbe0035
:103ef000010578000000e000180032000004be0058
:103f00006011b8006b0920000982cf00020039005f
:103f10000882cf000441b000694252000e00320016
:103f200008003b0082817100610164008904d100b6
:103f30000884d3008b05e8000442e800f9ff3a004a
:103f4000050037000804440089844c008b05e90013
:103f50000442e900fbff3a00030007004f05be00e2
:103f60004f04be0000000600810020006180550063
:103f70000b003d000b00200061fe2f000100e1005e
:103f80001d00340082817100610164008904d10048
:103f90000884d3000000e800faff3a007100200016
:103fa000610064000300700002006000090032003c
:103fb00061044400e0844c000988a500050032003b
:103fc0008b05e8006808e10002003a008904d1008e
:103fd0000884d300f20f20000258e10005003d00e4
:103fe000c75ddd00f907b200898075000800780020
:103ff000000006000bf827008b0078000000050089
:10400000c70ade00f107b200f50fb2000800320067
:10401000e1cf4200020032000170a0002400050040
:10402000810f700001003200040805004400050003
:10403000810f700002003a00140005008502e900bb
:104040000000400081c04800fcff3b000170a00060
:10405000240005000004be00e9ff07000003be00c5
:104060000405be000200be00e5ff0700844f750096
:10407000000006000200be006450e10005003600aa
:104080006420e100020036000968a30001003a0044
:104090000800be000160a0004f0678004f05be007a
:1040a0004f04be0000000600f0ff2f00f1ff2700c4
:1040b000f9ff3700889fbe008a9fbe008c1f7800e2
:1040c000e4ff0700ebff330003866c006450e1005f
:1040d000240032006420e100270032006150e1003a
:1040e000220032006120e100210032008b85420075
:1040f000eb07b1000134b800003ab80008044200f0
:1041000089844a00013ab8000030b8008880400035
:1041100009014a000400330000004000818048008b
:10412000020149008b05e900c909dd008301700027
:104130000100320013002000c814de004814dd0026
:104140004709de001200b200c808de0008847000d3
:1041500085ff070001f0a1000cf0a70001f0a0000e
:10416000cdff37006120e100cfff32000801be0023
:104170000200be00f7ff37006150e100fcff3a008b
:10418000c9ff3700020007000400be00000006005f
:104190006022b800060220000000d0008180d2001a
:1041a0000482d2008582d2000000a00002025200e8
:1041b00083825a00030031000202420083824a00d7
:1041c0000000a1000603e900f3ff3a00000006002a
:1041d0008001780002003700b159780004017800ae
:1041e0000202e900e00f5100fbff3a000000060068
:020000040000fa
:1041f0000400fa00008fbe000200200003782400b3
:104200001e00be00abff070008ff07000080fa0099
:10421000000006000000fa0040ccbf0060406000d3
:1042200040ecb70041ccbf006040600041ecb700fb
:1042300042ccbf00e040600000cdb30000c0700081
:1042400042ecb70043ccbf00604060007040b30058
:1042500043ecb70044ccbf00e040600080ccb3002a
:1042600000c0700044ecb70045ccbf006040600067
:1042700045ecb7006000b800ddff0700f20f20003a
:104280008201600082c1200012417800604161001b
:10429000034171000001fd0018ecb7000001fd00b2
:1042a000c801de0092c12000124178006041610027
:1042b000034171000200780019ecb700f20f2000f2
:1042c00082816000a2c1200012417800604161003b
:1042d00003417100020078001aecb700c808de0044
:1042e0001bccbf0060406000014070001becb700b9
:1042f0006000b800beff0700f20f200082016000de
:10430000c2c1200012417800604161000341710088
:104310000001fd001cecb7000001fd00c801de003b
:10432000d2c1200012417800604161000341710058
:10433000020078001decb700f20f200082816000bf
:10434000e2c1200012417800604161000341710028
:10435000020078001eecb700c808de001fccbf00ca
:1043600060406000014070001fecb7006000b800c2
:104370009fff0700f20f20008201600002c22000b0
:104380001241780060416100034171000001fd00ad
:1043900020ecb7000001fd00c801de0012c22000c1
:1043a0001241780060416100034171000200780011
:1043b00021ecb700f20f20008281600022c22000b1
:1043c00012417800604161000341710002007800f1
:1043d00022ecb700c808de0023ccbf0060406000bc
:1043e0000140700023ecb7000000200001f823001a
:1043f0007fff0700f20f200082016000e2c520006d
:104400001241780060416100034171000001fd002c
:104410005eecb7000001fd00c801de00f2c520001f
:104420001241780060416100034171000200780090
:104430005fecb700f20f20008281600002c620000e
:104440001241780060416100034171000200780070
:1044500060ecb700c808de0061ccbf0060406000bf
:104460000140700061ecb7006000b80060ff070019
:10447000f20f20008201600022c620001241780065
:1044800060416100034171000001fd0062ecb70072
:104490000001fd00c801de0032c620001241780094
:1044a00060416100034171000200780063ecb700d5
:1044b000f20f20008281600042c620001241780085
:1044c00060416100034171000200780064ecb700b4
:1044d000c808de0065ccbf0060406000014070008d
:1044e00065ecb7006000b80041ff0700f20f200044
:1044f0008201600062c620001241780060416100c4
:10450000034171000001fd0066ecb7000001fd00f1
:10451000c801de0072c620001241780060416100cf
:10452000034171000200780067ecb700f20f200031
:104530008281600082c620001241780060416100e3
:10454000034171000200780068ecb700c808de0083
:1045500069ccbf00604060000140700069ecb700aa
:104560006000b80022ff0700f20f20008201600007
:10457000a2c6200012417800604161000341710031
:104580000001fd006aecb7000001fd00c801de007b
:10459000b2c6200012417800604161000341710001
:1045a000020078006becb700f20f200082816000ff
:1045b000c2c62000124178006041610003417100d1
:1045c000020078006cecb700c808de006dccbf00bc
:1045d00060406000014070006decb70000002000fa
:1045e00001f8230002ff0700f20f200082016000a3
:1045f000e2c6200012417800604161000341710071
:104600000001fd006eecb7000001fd00c801de00f6
:10461000f2c6200012417800604161000341710040
:10462000020078006fecb700f20f2000828160007a
:1046300002c720001241780060416100034171000f
:104640000200780070ecb700c808de0071ccbf0033
:10465000604060000140700071ecb7006000b8007d
:10466000e3fe0700f20f20008201600022c7200055
:104670001241780060416100034171000001fd00ba
:1046800072ecb7000001fd00c801de0032c7200057
:10469000124178006041610003417100020078001e
:1046a00073ecb700f20f20008281600042c7200047
:1046b00012417800604161000341710002007800fe
:1046c00074ecb700c808de0075ccbf006040600025
:1046d0000140700075ecb7006000b800c4fe070030
:1046e000f20f20008201600062c7200012417800b2
:1046f00060416100034171000001fd0076ecb700ec
:104700000001fd00c801de0072c7200012417800e0
:1047100060416100034171000200780077ecb7004e
:10472000f20f20008281600082c7200012417800d1
:1047300060416100034171000200780078ecb7002d
:10474000c808de0079ccbf00604060000140700006
:1047500079ecb7006000b800a5fe0700f20f20005a
:1047600082016000a2c72000124178006041610010
:10477000034171000001fd007aecb7000001fd006b
:10478000c801de00b2c7200012417800604161001c
:1047900003417100020078007becb700f20f2000ab
:1047a00082816000c2c72000124178006041610030
:1047b00003417100020078007cecb700c808de00fd
:1047c0007dccbf0060406000014070007decb70010
:1047d0002cccbf00604060002cecb7002dccbf009b
:1047e000604060000014a0002decb7002eccbf008c
:1047f000604060002eecb7002fccbf00604060002e
:104800000014a0002fecb70080052a00b1c82300d7
:1048100077fe0700f20f20008201600042c22000f4
:104820001241780060416100034171000001fd0008
:1048300024ecb7000001fd00c801de0052c22000d8
:10484000124178006041610003417100020078006c
:1048500025ecb700f20f20008281600062c22000c8
:10486000124178006041610003417100020078004c
:1048700026ecb700c808de0027ccbf00604060000f
:104880000140700027ecb700f026210031a0230082
:1048900057fe0700f20f20008201600082c2200054
:1048a0001241780060416100034171000001fd0088
:1048b00028ecb7000001fd00c801de0092c2200014
:1048c00012417800604161000341710002007800ec
:1048d00029ecb700f20f200082816000a2c2200004
:1048e00012417800604161000341710002007800cc
:1048f0002aecb700c808de002bccbf006040600087
:10490000014070002becb7000000200041c82300dc
:1049100037fe0700f20f20008201600002c3200072
:104920001241780060416100034171000001fd0007
:1049300030ecb7000001fd00c801de0012c320000a
:10494000124178006041610003417100020078006b
:1049500031ecb700f20f20008281600022c32000fa
:10496000124178006041610003417100020078004b
:1049700032ecb700c808de0033ccbf0060406000f6
:104980000140700033ecb7000000200001f023006c
:1049900017fe0700f20f20008201600042c32000d2
:1049a0001241780060416100034171000001fd0087
:1049b00034ecb7000001fd00c801de0052c3200046
:1049c00012417800604161000341710002007800eb
:1049d00035ecb700f20f20008281600062c3200036
:1049e00012417800604161000341710002007800cb
:1049f00036ecb700c808de0037ccbf00604060006e
:104a00000140700037ecb7000000200001fc2300db
:104a1000f7fd0700f20f20008201600082c3200032
:104a20001241780060416100034171000001fd0006
:104a300038ecb7000001fd00c801de0092c3200081
:104a4000124178006041610003417100020078006a
:104a500039ecb700f20f200082816000a2c3200071
:104a6000124178006041610003417100020078004a
:104a70003aecb700c808de003bccbf0060406000e5
:104a8000014070003becb7001004260051be23002b
:104a9000d7fd0700f20f200082016000c2c3200092
:104aa0001241780060416100034171000001fd0086
:104ab0003cecb7000001fd00c801de00d2c32000bd
:104ac00012417800604161000341710002007800ea
:104ad0003decb700f20f200082816000e2c32000ad
:104ae00012417800604161000341710002007800ca
:104af0003eecb700c808de003fccbf00604060005d
:104b0000014070003fecb7000080fa000000060092
:104b10000400fa00889fbe008a9fbe008c9fbe00e2
:104b20001014800080007800f00f200000816000e9
:104b30000cccbf0060406000024070000cecb7007d
:104b4000c808de000dccbf0060406000014070006e
:104b50000decb7000cccbf008080fb000dccbf007b
:104b60000080fb004800dd0001007000800078003c
:104b70002cccbf000081fb002dccbf000080fb00cf
:104b80004800dd000200700080805000f00f20001f
:104b9000008160000cccbf006040600002407000eb
:104ba0000cecb700c808de000dccbf006040600010
:104bb000014070000decb7003014800080007800d8
:104bc000f00f2000008160000eccbf00604060004c
:104bd000024070000eecb700c808de000fccbf002a
:104be00060406000014070000fecb7000eccbf00c9
:104bf0008080fb000fccbf000080fb004800dd0080
:104c000001007000800078002cccbf000081fb0008
:104c10002dccbf000080fb004800dd0002007000ca
:104c200080805000f00f2000008160000eccbf009b
:104c300060406000024070000eecb700c808de0063
:104c40000fccbf0060406000014070000fecb70067
:104c50002014800080007800f00f200000816000a8
:104c600010ccbf00604060000240700010ecb70044
:104c7000c808de0011ccbf00604060000140700039
:104c800011ecb70010ccbf008080fb0011ccbf003e
:104c90000080fb004800dd0001007000800078000b
:104ca0002cccbf000081fb002dccbf000080fb009e
:104cb0004800dd000200700080805000f00f2000ee
:104cc0000081600010ccbf006040600002407000b6
:104cd00010ecb700c808de0011ccbf0060406000d7
:104ce0000140700011ecb700c1c0200060c420007a
:104cf0001513070042c22000124178008281fb0098
:104d000052c22000124178000281fb004811dd00f0
:104d1000030171000200780062c220001241780095
:104d20008281fb0072c22000124178000281fb00e8
:104d30004811dd00030171008200780062c4200088
:104d4000124178008281fb0072c420001241780079
:104d50000281fb004811dd000301710002027800ae
:104d600082c42000124178008281fb0092c420009e
:104d7000124178000281fb004811dd00030171003f
:104d8000820278000001be000400be002b13070061
:104d900060001000e0801800f20f20008201600027
:104da00062c420001241780060416100034171003b
:104db0000001fd0046ecb7000001fd00c801de0067
:104dc00072c420001241780060416100034171000b
:104dd0000200780047ecb700f20f200082816000eb
:104de00082c42000124178006041610003417100db
:104df0000200780048ecb700c808de0049ccbf00cc
:104e0000604060000140700049ecb700e1c0200044
:104e1000a0c42000cc12070042c22000124178003a
:104e20008281fb0052c22000124178000281fb0007
:104e30004811dd00030171000200780062c2200009
:104e4000124178008281fb0072c22000124178007a
:104e50000281fb004811dd0003017100820078002f
:104e6000a2c42000124178008281fb00b2c420005d
:104e7000124178000281fb004811dd00030171003e
:104e800002027800c2c42000124178008281fb0037
:104e9000d2c42000124178000281fb004811dd00dd
:104ea00003017100820278000001be000400be0010
:104eb000e212070060001000e0801800f20f2000ee
:104ec00082016000a2c420001241780060416100ac
:104ed000034171000001fd004aecb7000001fd0034
:104ee000c801de00b2c420001241780060416100b8
:104ef00003417100020078004becb700f20f200074
:104f000082816000c2c420001241780060416100cb
:104f100003417100020078004cecb700c808de00c5
:104f20004dccbf0060406000014070004decb70008
:104f300001c12000e0c420008312070042c220000b
:104f4000124178008281fb0052c220001241780099
:104f50000281fb004811dd000301710002007800ae
:104f600062c22000124178008281fb0072c22000e0
:104f7000124178000281fb004811dd00030171003d
:104f800082007800e2c42000124178008281fb0098
:104f9000f2c42000124178000281fb004811dd00bc
:104fa000030171000202780002c52000124178005e
:104fb0008281fb0012c52000124178000281fb00b3
:104fc0004811dd0003017100820278000001be007b
:104fd0000400be0099120700f20f20008201600059
:104fe000e2c4200012417800604161000341710079
:104ff0000001fd004eecb7000001fd00c801de001d
:10500000f2c4200012417800604161000341710048
:10501000020078004fecb700f20f200082816000a0
:1050200002c5200012417800604161000341710017
:105030000200780050ecb700c808de0051ccbf0079
:10504000604060000140700051ecb70040ccbf00f0
:105050008080fb0041ccbf000080fb004800dd00e9
:10506000010070008000780042ccbf000081fb008e
:1050700043ccbf000080fb004800dd000200700050
:10508000808f50009c013d0044ccbf008080fb001d
:1050900045ccbf000080fb004800dd00010070002f
:1050a0008000e900f00f20000081600044ccbf00c8
:1050b000604060000240700044ecb700c808de00a9
:1050c00045ccbf00604060000140700045ecb70077
:1050d00044ccbf008080fb0045ccbf000080fb00bb
:1050e0004800dd0001007000e00f50001e053c008c
:1050f00018ccbf008080fb0019ccbf000080fb00f3
:105100004800dd0001007000000178001accbf00eb
:105110008080fb001bccbf000080fb004800dd004e
:10512000010070008001780064c4200014427800ff
:105130008482fb0074c42000144278000482fb00c7
:105140004822dd00050272000400780084c42000bb
:10515000144278008482fb0094c42000144278003a
:105160000482fb004822dd00050272008400780002
:105170000200400083804800f20f2000820160009e
:1051800082c120001241780060416100034171003a
:105190000001fd0018ecb7000001fd00c801de00b1
:1051a00092c120001241780060416100034171000a
:1051b0000200780019ecb700f20f20008281600035
:1051c000a2c12000124178006041610003417100da
:1051d000020078001aecb700c808de001bccbf0044
:1051e00060406000014070001becb7001cccbf00a9
:1051f0008080fb001dccbf000080fb004800dd006c
:1052000001007000000178001eccbf008080fb0010
:105210001fccbf000080fb004800dd0001007000d3
:1052200080017800a4c42000144278008482fb002e
:10523000b4c42000144278000482fb004822dd0040
:105240000502720004007800c4c4200014427800f3
:105250008482fb00d4c42000144278000482fb0046
:105260004822dd0005027200840078000200400040
:1052700083804800f20f200082016000c2c120003c
:105280001241780060416100034171000001fd009e
:105290001cecb7000001fd00c801de00d2c12000f7
:1052a0001241780060416100034171000200780002
:1052b0001decb700f20f200082816000e2c12000e7
:1052c00012417800604161000341710002007800e2
:1052d0001eecb700c808de001fccbf0060406000b5
:1052e000014070001fecb70020ccbf008080fb00a5
:1052f00021ccbf000080fb004800dd0001007000f1
:105300000001780022ccbf008080fb0023ccbf00ce
:105310000080fb004800dd00010070008001780083
:10532000e4c42000144278008482fb00f4c420000e
:10533000144278000482fb004822dd00050272005e
:105340000400780004c52000144278008482fb0029
:1053500014c52000144278000482fb004822dd00be
:10536000050272008400780002004000838048003b
:10537000f20f20008201600002c22000124178007a
:1053800060416100034171000001fd0020ecb700a5
:105390000001fd00c801de0012c2200012417800a9
:1053a00060416100034171000200780021ecb70008
:1053b000f20f20008281600022c22000124178009a
:1053c00060416100034171000200780022ecb700e7
:1053d000c808de0023ccbf006040600001407000c0
:1053e00023ecb70040ccbf008080fb0041ccbf0065
:1053f0000080fb004800dd00010070008000e80034
:10540000f00f20000081600040ccbf0060406000d1
:105410000240700040ecb700c808de0041ccbf007d
:10542000604060000140700041ecb70040ccbf001c
:105430008080fb0041ccbf000080fb004800dd0005
:10544000010070008000780042ccbf000081fb00aa
:1054500043ccbf000080fb004800dd00020070006c
:10546000808f500042043a0042ccbf008080fb0095
:1054700043ccbf000080fb004800dd00010070004d
:10548000cf80de008afa07000001be000000200085
:1054900001f8230023fa070055fb0700008fbe0028
:1054a00082c12000124178008281fb0092c120005d
:1054b000124178000281fb004811dd0003017100f8
:1054c00002007800a2c12000124178008281fb0016
:1054d000b2c12000124178000281fb004811dd00ba
:1054e00003017100820078001e01be005311070005
:1054f000f20f20008201600082c12000124178007a
:1055000060416100034171000001fd0018ecb7002b
:105510000001fd00c801de0092c1200012417800a8
:1055200060416100034171000200780019ecb7008e
:10553000f20f200082816000a2c120001241780099
:105540006041610003417100020078001aecb7006d
:10555000c808de001bccbf00604060000140700046
:105560001becb700c2c12000124178008281fb0011
:10557000d2c12000124178000281fb004811dd00f9
:105580000301710002007800e2c12000124178009e
:105590008281fb00f2c12000124178000281fb00f1
:1055a0004811dd0003017100820078001e01be0079
:1055b00022110700f20f200082016000c2c120000a
:1055c0001241780060416100034171000001fd005b
:1055d0001cecb7000001fd00c801de00d2c12000b4
:1055e00012417800604161000341710002007800bf
:1055f0001decb700f20f200082816000e2c12000a4
:10560000124178006041610003417100020078009e
:105610001eecb700c808de001fccbf006040600071
:10562000014070001fecb70002c220001241780058
:105630008281fb0012c22000124178000281fb002f
:105640004811dd00030171000200780022c2200031
:10565000124178008281fb0032c2200012417800a2
:105660000281fb004811dd00030171008200780017
:105670001e01be00f1100700f20f20008201600041
:1056800002c22000124178006041610003417100b4
:105690000001fd0020ecb7000001fd00c801de00a4
:1056a00012c2200012417800604161000341710084
:1056b0000200780021ecb700f20f20008281600028
:1056c00022c2200012417800604161000341710054
:1056d0000200780022ecb700c808de0023ccbf002f
:1056e000604060000140700023ecb700e202a800b7
:1056f000e222a8009f03370046ccbf008080fb0059
:1057000047ccbf000080fb004800dd0001007000b6
:105710000001780048ccbf008080fb0049ccbf006e
:105720000080fb004800dd0001007000800178006f
:1057300084c12000144278008482fb0094c12000c0
:10574000144278000482fb004822dd00050272004a
:1057500004007800a4c12000144278008482fb0079
:10576000b4c12000144278000482fb004822dd000e
:105770000502720084007800000051008180590009
:10578000f20f20008201600062c420001241780004
:1057900060416100034171000001fd0046ecb7006b
:1057a0000001fd00c801de0072c420001241780033
:1057b00060416100034171000200780047ecb700ce
:1057c000f20f20008281600082c420001241780024
:1057d00060416100034171000200780048ecb700ad
:1057e000c808de0049ccbf00604060000140700086
:1057f00049ecb7004accbf008080fb004bccbf0017
:105800000080fb004800dd0001007000000178000e
:105810004cccbf008080fb004dccbf000080fb0063
:105820004800dd000100700080017800c4c1200044
:10583000144278008482fb00d4c120001442780016
:105840000482fb004822dd0005027200040078009b
:10585000e4c12000144278008482fb00f4c12000df
:10586000144278000482fb004822dd000502720029
:10587000840078000000510081805900f20f200060
:1058800082016000a2c420001241780060416100e2
:10589000034171000001fd004aecb7000001fd006a
:1058a000c801de00b2c420001241780060416100ee
:1058b00003417100020078004becb700f20f2000aa
:1058c00082816000c2c42000124178006041610002
:1058d00003417100020078004cecb700c808de00fc
:1058e0004dccbf0060406000014070004decb7003f
:1058f0004eccbf008080fb004fccbf000080fb007f
:105900004800dd00010070000001780050ccbf00ad
:105910008080fb0051ccbf000080fb004800dd0010
:10592000010070008001780004c220001442780059
:105930008482fb0014c22000144278000482fb0021
:105940004822dd00050272000400780024c2200015
:10595000144278008482fb0034c220001442780094
:105960000482fb004822dd000502720084007800fa
:105970000000510081805900f20f20008201600078
:10598000e2c42000124178006041610003417100cf
:105990000001fd004eecb7000001fd00c801de0073
:1059a000f2c420001241780060416100034171009f
:1059b000020078004fecb700f20f200082816000f7
:1059c00002c520001241780060416100034171006e
:1059d0000200780050ecb700c808de0051ccbf00d0
:1059e000604060000140700051ecb7005eccbf0029
:1059f0008080fb005fccbf000080fb004800dd0022
:105a0000010070000005780060ccbf008080fb00c2
:105a100061ccbf000080fb004800dd000100700089
:105a20008005780028ccbf008080fb0029ccbf0017
:105a30000080fb004800dd000100700000047800d9
:105a40002accbf008080fb002bccbf000080fb0075
:105a50004800dd00010070008004780062c420006e
:105a6000124178008281fb0072c42000124178004c
:105a70000281fb004811dd00030171000200780083
:105a800082c42000124178008281fb0092c4200071
:105a9000124178000281fb004811dd000301710012
:105aa0008200780022c62000124178008281fb002b
:105ab00032c62000124178000281fb004811dd004f
